{"abi":[{"type":"constructor","inputs":[{"name":"projectOwner","type":"address","internalType":"address"},{"name":"tokenAddress","type":"address","internalType":"address"},{"name":"pricePerToken","type":"uint256","internalType":"uint256"},{"name":"startTime","type":"uint256","internalType":"uint256"},{"name":"endTime","type":"uint256","internalType":"uint256"},{"name":"minInvest","type":"uint256","internalType":"uint256"},{"name":"maxInvest","type":"uint256","internalType":"uint256"},{"name":"hardCapAmount","type":"uint256","internalType":"uint256"},{"name":"softCapAmount","type":"uint256","internalType":"uint256"},{"name":"rewardRate","type":"uint256","internalType":"uint256"},{"name":"acceptedVAsset","type":"address","internalType":"address"},{"name":"_slpxAddress","type":"address","internalType":"address"}],"stateMutability":"nonpayable"},{"type":"function","name":"IDO_FEE_RATE","inputs":[],"outputs":[{"name":"","type":"uint256","internalType":"uint256"}],"stateMutability":"view"},{"type":"function","name":"RATE_DECIMALS","inputs":[],"outputs":[{"name":"","type":"uint256","internalType":"uint256"}],"stateMutability":"view"},{"type":"function","name":"getAcceptedVAsset","inputs":[],"outputs":[{"name":"","type":"address","internalType":"address"}],"stateMutability":"view"},{"type":"function","name":"getAmountToTopUp","inputs":[],"outputs":[{"name":"","type":"uint256","internalType":"uint256"}],"stateMutability":"view"},{"type":"function","name":"getProjectDetail","inputs":[],"outputs":[{"name":"","type":"tuple","internalType":"struct ProjectPool.ProjectDetail","components":[{"name":"projectId","type":"uint256","internalType":"uint256"},{"name":"projectOwner","type":"address","internalType":"address"},{"name":"tokenAddress","type":"address","internalType":"address"},{"name":"pricePerToken","type":"uint256","internalType":"uint256"},{"name":"startTime","type":"uint256","internalType":"uint256"},{"name":"endTime","type":"uint256","internalType":"uint256"},{"name":"raisedAmount","type":"uint256","internalType":"uint256"},{"name":"hardCapAmount","type":"uint256","internalType":"uint256"},{"name":"softCapAmount","type":"uint256","internalType":"uint256"},{"name":"minInvest","type":"uint256","internalType":"uint256"},{"name":"maxInvest","type":"uint256","internalType":"uint256"},{"name":"acceptedVAsset","type":"address","internalType":"address"},{"name":"rewardRate","type":"uint256","internalType":"uint256"}]}],"stateMutability":"view"},{"type":"function","name":"getProjectEndTime","inputs":[],"outputs":[{"name":"","type":"uint256","internalType":"uint256"}],"stateMutability":"view"},{"type":"function","name":"getProjectFullDetails","inputs":[],"outputs":[{"name":"","type":"tuple","internalType":"struct ProjectPool.ProjectDetail","components":[{"name":"projectId","type":"uint256","internalType":"uint256"},{"name":"projectOwner","type":"address","internalType":"address"},{"name":"tokenAddress","type":"address","internalType":"address"},{"name":"pricePerToken","type":"uint256","internalType":"uint256"},{"name":"startTime","type":"uint256","internalType":"uint256"},{"name":"endTime","type":"uint256","internalType":"uint256"},{"name":"raisedAmount","type":"uint256","internalType":"uint256"},{"name":"hardCapAmount","type":"uint256","internalType":"uint256"},{"name":"softCapAmount","type":"uint256","internalType":"uint256"},{"name":"minInvest","type":"uint256","internalType":"uint256"},{"name":"maxInvest","type":"uint256","internalType":"uint256"},{"name":"acceptedVAsset","type":"address","internalType":"address"},{"name":"rewardRate","type":"uint256","internalType":"uint256"}]}],"stateMutability":"view"},{"type":"function","name":"getProjectHardCapAmount","inputs":[],"outputs":[{"name":"","type":"uint256","internalType":"uint256"}],"stateMutability":"view"},{"type":"function","name":"getProjectMaxInvest","inputs":[],"outputs":[{"name":"","type":"uint256","internalType":"uint256"}],"stateMutability":"view"},{"type":"function","name":"getProjectMinInvest","inputs":[],"outputs":[{"name":"","type":"uint256","internalType":"uint256"}],"stateMutability":"view"},{"type":"function","name":"getProjectOwner","inputs":[],"outputs":[{"name":"","type":"address","internalType":"address"}],"stateMutability":"view"},{"type":"function","name":"getProjectRaisedAmount","inputs":[],"outputs":[{"name":"","type":"uint256","internalType":"uint256"}],"stateMutability":"view"},{"type":"function","name":"getProjectSoftCapAmount","inputs":[],"outputs":[{"name":"","type":"uint256","internalType":"uint256"}],"stateMutability":"view"},{"type":"function","name":"getProjectSoftCapReached","inputs":[],"outputs":[{"name":"","type":"bool","internalType":"bool"}],"stateMutability":"view"},{"type":"function","name":"getProjectStartTime","inputs":[],"outputs":[{"name":"","type":"uint256","internalType":"uint256"}],"stateMutability":"view"},{"type":"function","name":"getProjectTokenAddress","inputs":[],"outputs":[{"name":"","type":"address","internalType":"address"}],"stateMutability":"view"},{"type":"function","name":"getProjectTokenToppedUpAmt","inputs":[],"outputs":[{"name":"","type":"uint256","internalType":"uint256"}],"stateMutability":"view"},{"type":"function","name":"getRedeemAmount","inputs":[],"outputs":[{"name":"","type":"uint256","internalType":"uint256"}],"stateMutability":"view"},{"type":"function","name":"getReserveInvestment","inputs":[],"outputs":[{"name":"","type":"uint256","internalType":"uint256"}],"stateMutability":"view"},{"type":"function","name":"getTimeLeftUntilProjecctEnd","inputs":[],"outputs":[{"name":"","type":"uint256","internalType":"uint256"}],"stateMutability":"view"},{"type":"function","name":"getUserDepositAmount","inputs":[{"name":"_userAdr","type":"address","internalType":"address"}],"outputs":[{"name":"","type":"uint256","internalType":"uint256"}],"stateMutability":"view"},{"type":"function","name":"getVAssetAddress","inputs":[],"outputs":[{"name":"","type":"address","internalType":"address"}],"stateMutability":"view"},{"type":"function","name":"getWithdrawAmount","inputs":[],"outputs":[{"name":"","type":"uint256","internalType":"uint256"}],"stateMutability":"view"},{"type":"function","name":"investProject","inputs":[{"name":"amount","type":"uint256","internalType":"uint256"}],"outputs":[],"stateMutability":"nonpayable"},{"type":"function","name":"isProjectActive","inputs":[],"outputs":[{"name":"","type":"bool","internalType":"bool"}],"stateMutability":"view"},{"type":"function","name":"isProjectFullyToppedUp","inputs":[],"outputs":[{"name":"","type":"bool","internalType":"bool"}],"stateMutability":"view"},{"type":"function","name":"isVAssetAcceptedByProject","inputs":[{"name":"vAssetAddress","type":"address","internalType":"address"}],"outputs":[{"name":"","type":"bool","internalType":"bool"}],"stateMutability":"view"},{"type":"function","name":"isWhitelisted","inputs":[{"name":"_address","type":"address","internalType":"address"}],"outputs":[{"name":"","type":"bool","internalType":"bool"}],"stateMutability":"view"},{"type":"function","name":"joinWhitelist","inputs":[],"outputs":[],"stateMutability":"nonpayable"},{"type":"function","name":"owner","inputs":[],"outputs":[{"name":"","type":"address","internalType":"address"}],"stateMutability":"view"},{"type":"function","name":"redeemTokens","inputs":[],"outputs":[],"stateMutability":"nonpayable"},{"type":"function","name":"refundToken","inputs":[],"outputs":[],"stateMutability":"nonpayable"},{"type":"function","name":"renounceOwnership","inputs":[],"outputs":[],"stateMutability":"nonpayable"},{"type":"function","name":"slpxAddress","inputs":[],"outputs":[{"name":"","type":"address","internalType":"address"}],"stateMutability":"view"},{"type":"function","name":"transferOwnership","inputs":[{"name":"newOwner","type":"address","internalType":"address"}],"outputs":[],"stateMutability":"nonpayable"},{"type":"function","name":"withdrawFund","inputs":[],"outputs":[],"stateMutability":"nonpayable"},{"type":"event","name":"Invested","inputs":[{"name":"user","type":"address","indexed":true,"internalType":"address"},{"name":"projectId","type":"uint256","indexed":true,"internalType":"uint256"},{"name":"amount","type":"uint256","indexed":false,"internalType":"uint256"}],"anonymous":false},{"type":"event","name":"OwnershipTransferred","inputs":[{"name":"previousOwner","type":"address","indexed":true,"internalType":"address"},{"name":"newOwner","type":"address","indexed":true,"internalType":"address"}],"anonymous":false},{"type":"event","name":"ProjectCreated","inputs":[{"name":"projectOwner","type":"address","indexed":true,"internalType":"address"},{"name":"tokenAddress","type":"address","indexed":true,"internalType":"address"},{"name":"projectId","type":"uint256","indexed":false,"internalType":"uint256"},{"name":"pricePerToken","type":"uint256","indexed":false,"internalType":"uint256"},{"name":"startTime","type":"uint256","indexed":false,"internalType":"uint256"},{"name":"endTime","type":"uint256","indexed":false,"internalType":"uint256"}],"anonymous":false},{"type":"event","name":"ProjectWithdrawn","inputs":[{"name":"user","type":"address","indexed":true,"internalType":"address"},{"name":"projectId","type":"uint256","indexed":true,"internalType":"uint256"},{"name":"amount","type":"uint256","indexed":false,"internalType":"uint256"}],"anonymous":false},{"type":"event","name":"Redeemed","inputs":[{"name":"user","type":"address","indexed":true,"internalType":"address"},{"name":"projectId","type":"uint256","indexed":true,"internalType":"uint256"},{"name":"amount","type":"uint256","indexed":false,"internalType":"uint256"}],"anonymous":false},{"type":"event","name":"Whitelisted","inputs":[{"name":"user","type":"address","indexed":true,"internalType":"address"},{"name":"projectId","type":"uint256","indexed":true,"internalType":"uint256"}],"anonymous":false},{"type":"error","name":"AlreadyWhitelisted","inputs":[]},{"type":"error","name":"ERC20TransferFailed","inputs":[]},{"type":"error","name":"HardCapExceeded","inputs":[]},{"type":"error","name":"InvalidProjectHardCap","inputs":[]},{"type":"error","name":"InvalidProjectId","inputs":[]},{"type":"error","name":"InvalidProjectMaxInvestment","inputs":[]},{"type":"error","name":"InvalidProjectMinInvestment","inputs":[]},{"type":"error","name":"InvalidProjectSoftCap","inputs":[]},{"type":"error","name":"InvalidProjectTimeframe","inputs":[]},{"type":"error","name":"MaxInvestmentExceeded","inputs":[]},{"type":"error","name":"MinInvestmentNotReached","inputs":[]},{"type":"error","name":"NotEnoughERC20Allowance","inputs":[]},{"type":"error","name":"NotProjectOwner","inputs":[]},{"type":"error","name":"OwnableInvalidOwner","inputs":[{"name":"owner","type":"address","internalType":"address"}]},{"type":"error","name":"OwnableUnauthorizedAccount","inputs":[{"name":"account","type":"address","internalType":"address"}]},{"type":"error","name":"ProjectIDOHasEnded","inputs":[]},{"type":"error","name":"ProjectIDOHasNotStarted","inputs":[]},{"type":"error","name":"ProjectStillActive","inputs":[]},{"type":"error","name":"ReentrancyGuardReentrantCall","inputs":[]},{"type":"error","name":"SoftCapNotReach","inputs":[]},{"type":"error","name":"TokenForSaleMustBePositive","inputs":[]},{"type":"error","name":"TokenPriceMustBePositive","inputs":[]},{"type":"error","name":"UserNotWhitelisted","inputs":[]},{"type":"error","name":"ZeroAddress","inputs":[]}],"bytecode":{"object":"0x60a06040523480156200001157600080fd5b50604051620015c0380380620015c083398101604081905262000034916200022c565b8b6001600160a01b0381166200006457604051631e4fbdf760e01b81526000600482015260240160405180910390fd5b6200006f81620001bf565b50600180558b6001600160a01b0381166200009d5760405163d92e233d60e01b815260040160405180910390fd5b851580620000ab5750848611155b15620000ca57604051636cbdb61f60e01b815260040160405180910390fd5b60008511620000ec57604051635046b82960e11b815260040160405180910390fd5b861580620000f957508587115b806200010457508787105b1562000123576040516301c9409d60e31b815260040160405180910390fd5b600088116200014557604051630c8b846560e41b815260040160405180910390fd5b50600380546001600160a01b03199081166001600160a01b039e8f16179091556004805482169c8e169c909c17909b556005999099556006979097556007959095556000600855600b93909355600c91909155600955600a55600d805490941691851691909117909255600e9190915516608052620002d9565b600080546001600160a01b038381166001600160a01b0319831681178455604051919092169283917f8be0079c531659141344cd1fd0a4f28419497f9722a3daafe3b4186f6b6457e09190a35050565b80516001600160a01b03811681146200022757600080fd5b919050565b6000806000806000806000806000806000806101808d8f0312156200025057600080fd5b6200025b8d6200020f565b9b506200026b60208e016200020f565b9a5060408d0151995060608d0151985060808d0151975060a08d0151965060c08d0151955060e08d015194506101008d015193506101208d01519250620002b66101408e016200020f565b9150620002c76101608e016200020f565b90509295989b509295989b509295989b565b6080516112cb620002f5600039600061041401526112cb6000f3fe608060405234801561001057600080fd5b506004361061021c5760003560e01c80639efda4d711610125578063ccb9dc8b116100ad578063e9a9c50c1161007c578063e9a9c50c146103e4578063f2fde38b146103ec578063f4390f02146103ff578063f5e430c514610407578063f728186d1461040f57600080fd5b8063ccb9dc8b146103a1578063e07fa3c1146103a9578063e6d68595146103b1578063e89b1fec146103c257600080fd5b8063b3017fd0116100f4578063b3017fd014610376578063b3a4faa21461037e578063b5697a1c14610391578063be9d323c14610399578063bfccc658146102cd57600080fd5b80639efda4d714610356578063a9518e881461035e578063a96fd5d814610366578063a9c51b701461036e57600080fd5b80635f791a15116101a85780637e53614f116101775780637e53614f1461031b5780638da5cb5b1461032357806395c09054146103345780639953c210146103495780639dbf77c11461033457600080fd5b80635f791a15146102f257806366c561f8146102fa578063715018a6146103025780637cbb7b461461030a57600080fd5b8063465a5044116101ef578063465a5044146102a95780634d900f63146102b15780635a604c52146102bb5780635cb732be146102c35780635eb5e2f4146102cd57600080fd5b8063027932f9146102215780630cec2a761461023c5780630fd4a2a9146102655780633af32abf1461026d575b600080fd5b610229610436565b6040519081526020015b60405180910390f35b61022961024a366004610fbd565b6001600160a01b03166000908152600f602052604090205490565b600954610229565b61029961027b366004610fbd565b6001600160a01b031660009081526010602052604090205460ff1690565b6040519015158152602001610233565b61022961047d565b6007544211610299565b610229600481565b6102cb610528565b005b600d546001600160a01b03165b6040516001600160a01b039091168152602001610233565b600b54610229565b600754610229565b6102cb61065f565b6004546001600160a01b03166102da565b610229610673565b6000546001600160a01b03166102da565b61033c610689565b6040516102339190610fe6565b600a546008541015610299565b61022961079a565b6102cb610818565b600c54610229565b600a54610229565b600854610229565b6102cb61038c3660046110a8565b6108e5565b610229603281565b610229610a1d565b610229610a59565b6102cb610a6b565b6003546001600160a01b03166102da565b6102996103d0366004610fbd565b600d546001600160a01b0391821691161490565b6102cb610bc1565b6102cb6103fa366004610fbd565b610d37565b600654610229565b610299610d77565b6102da7f000000000000000000000000000000000000000000000000000000000000000081565b60008061044260085490565b905060006104526004600a6111bd565b61045d6032846111c9565b61046791906111e0565b905060006104758284611202565b949350505050565b60008061048960095490565b9050600061049f6004546001600160a01b031690565b6001600160a01b031663313ce5676040518163ffffffff1660e01b8152600401602060405180830381865afa1580156104dc573d6000803e3d6000fd5b505050506040513d601f19601f820116820180604052508101906105009190611215565b60055490915060009061051483600a611238565b61051e90856111c9565b61047591906111e0565b3360008181526010602052604090205460ff1661055857604051632ba75b2560e01b815260040160405180910390fd5b610560610d98565b6000336001600160a01b038181166000818152600f602052604080822054600d54915163a9059cbb60e01b81526004810194909452602484018190529495509092169063a9059cbb906044016020604051808303816000875af11580156105cb573d6000803e3d6000fd5b505050506040513d601f19601f820116820180604052508101906105ef9190611247565b90508061060f57604051633c9fd93960e21b815260040160405180910390fd5b6002546040518381526001600160a01b038516907ff3a670cd3af7d64b488926880889d08a8585a138ff455227af6737339a1ec2629060200160405180910390a350505061065c60018055565b50565b610667610dc2565b6106716000610def565b565b600754600090610684904290611202565b905090565b61070f604051806101a001604052806000815260200160006001600160a01b0316815260200160006001600160a01b03168152602001600081526020016000815260200160008152602001600081526020016000815260200160008152602001600081526020016000815260200160006001600160a01b03168152602001600081525090565b50604080516101a08101825260025481526003546001600160a01b0390811660208301526004548116928201929092526005546060820152600654608082015260075460a082015260085460c082015260095460e0820152600a54610100820152600b54610120820152600c54610140820152600d54909116610160820152600e5461018082015290565b60006107ae6004546001600160a01b031690565b6040516370a0823160e01b81523060048201526001600160a01b0391909116906370a0823190602401602060405180830381865afa1580156107f4573d6000803e3d6000fd5b505050506040513d601f19601f820116820180604052508101906106849190611269565b610820610d98565b3360008181526010602052604090205460ff16156108515760405163b73e95e160e01b815260040160405180910390fd5b6009546008541061087557604051631c4af3c960e11b815260040160405180910390fd5b60025460405133907f6ea640312e182de387819fbeb13be00db3171a445412852248559054871c419990600090a36001600160a01b0381166000908152601060205260408120805460ff191660011790556108ce610a59565b90506108da3382610e3f565b505061067160018055565b3360008181526010602052604090205460ff1661091557604051632ba75b2560e01b815260040160405180910390fd5b61091d610d98565b336000610928610689565b9050600061094b836001600160a01b03166000908152600f602052604090205490565b905060006109598683611282565b90508261012001518110156109815760405163753f384d60e11b815260040160405180910390fd5b8261014001518111156109a757604051631ba05a5760e31b815260040160405180910390fd5b82516040518781526001600160a01b038616907f9e9d071824fd57d062ca63fd8b786d8da48a6807eebbcb2d83f9e8d21398e28c9060200160405180910390a380600260060160008282546109fc9190611282565b90915550610a0c90508487610e3f565b50505050610a1960018055565b5050565b336000908152600f60205260408120546005548290610a3e6004600a6111bd565b610a4890846111c9565b610a5291906111e0565b9392505050565b600b54600090610684906002906111e0565b6003546001600160a01b0316336001600160a01b031614610a9f57604051637c2411e960e01b815260040160405180910390fd5b610aa7610d98565b600a546008541015610acb576040516250b2a360e81b815260040160405180910390fd5b6000610ad5610436565b600d549091506000906001600160a01b031663a9059cbb336040516001600160e01b031960e084901b1681526001600160a01b039091166004820152602481018590526044016020604051808303816000875af1158015610b3a573d6000803e3d6000fd5b505050506040513d601f19601f82011682018060405250810190610b5e9190611247565b905080610b7e57604051633c9fd93960e21b815260040160405180910390fd5b60025460405183815233907f2a21ff03a0e8112a6f7dd57a7a1e07b922c2cb6b55fb1f3ef2e7a0084eaa6dc29060200160405180910390a3505061067160018055565b600a546008541015610be5576040516250b2a360e81b815260040160405180910390fd5b3360008181526010602052604090205460ff16610c1557604051632ba75b2560e01b815260040160405180910390fd5b610c1d610d98565b336000610c28610a1d565b600e54909150600090610c3b90836111c9565b90506000610c498284611282565b6004805460405163a9059cbb60e01b81526001600160a01b03888116938201939093526024810184905292935060009291169063a9059cbb906044016020604051808303816000875af1158015610ca4573d6000803e3d6000fd5b505050506040513d601f19601f82011682018060405250810190610cc89190611247565b905080610ce857604051633c9fd93960e21b815260040160405180910390fd5b6002546040518381526001600160a01b038716907ff3a670cd3af7d64b488926880889d08a8585a138ff455227af6737339a1ec2629060200160405180910390a3505050505061065c60018055565b610d3f610dc2565b6001600160a01b038116610d6e57604051631e4fbdf760e01b8152600060048201526024015b60405180910390fd5b61065c81610def565b600080610d8261079a565b90506000610d8e61047d565b9091101592915050565b600260015403610dbb57604051633ee5aeb560e01b815260040160405180910390fd5b6002600155565b6000546001600160a01b031633146106715760405163118cdaa760e01b8152336004820152602401610d65565b600080546001600160a01b038381166001600160a01b0319831681178455604051919092169283917f8be0079c531659141344cd1fd0a4f28419497f9722a3daafe3b4186f6b6457e09190a35050565b6000610e53600d546001600160a01b031690565b604051636eb1769f60e11b81526001600160a01b03858116600483015230602483015291925060009183169063dd62ed3e90604401602060405180830381865afa158015610ea5573d6000803e3d6000fd5b505050506040513d601f19601f82011682018060405250810190610ec99190611269565b905082811015610eec5760405163bd0a4d7160e01b815260040160405180910390fd5b6001600160a01b0384166000908152600f602052604081208054859290610f14908490611282565b90915550506040516323b872dd60e01b81526001600160a01b03858116600483015230602483015260448201859052600091908416906323b872dd906064016020604051808303816000875af1158015610f72573d6000803e3d6000fd5b505050506040513d601f19601f82011682018060405250810190610f969190611247565b905080610fb657604051633c9fd93960e21b815260040160405180910390fd5b5050505050565b600060208284031215610fcf57600080fd5b81356001600160a01b0381168114610a5257600080fd5b815181526020808301516101a083019161100a908401826001600160a01b03169052565b50604083015161102560408401826001600160a01b03169052565b50606083015160608301526080830151608083015260a083015160a083015260c083015160c083015260e083015160e083015261010080840151818401525061012080840151818401525061014080840151818401525061016080840151611097828501826001600160a01b03169052565b505061018092830151919092015290565b6000602082840312156110ba57600080fd5b5035919050565b634e487b7160e01b600052601160045260246000fd5b600181815b808511156111125781600019048211156110f8576110f86110c1565b8085161561110557918102915b93841c93908002906110dc565b509250929050565b600082611129575060016111b7565b81611136575060006111b7565b816001811461114c576002811461115657611172565b60019150506111b7565b60ff841115611167576111676110c1565b50506001821b6111b7565b5060208310610133831016604e8410600b8410161715611195575081810a6111b7565b61119f83836110d7565b80600019048211156111b3576111b36110c1565b0290505b92915050565b6000610a52838361111a565b80820281158282048414176111b7576111b76110c1565b6000826111fd57634e487b7160e01b600052601260045260246000fd5b500490565b818103818111156111b7576111b76110c1565b60006020828403121561122757600080fd5b815160ff81168114610a5257600080fd5b6000610a5260ff84168361111a565b60006020828403121561125957600080fd5b81518015158114610a5257600080fd5b60006020828403121561127b57600080fd5b5051919050565b808201808211156111b7576111b76110c156fea26469706673582212206bd9efc7ef266666feda0e129833e719e34869b4d8f476842d4807763dbd624b64736f6c63430008180033","linkReferences":{}},"methodIdentifiers":{"IDO_FEE_RATE()":"b5697a1c","RATE_DECIMALS()":"5a604c52","getAcceptedVAsset()":"5eb5e2f4","getAmountToTopUp()":"465a5044","getProjectDetail()":"9dbf77c1","getProjectEndTime()":"66c561f8","getProjectFullDetails()":"95c09054","getProjectHardCapAmount()":"0fd4a2a9","getProjectMaxInvest()":"a96fd5d8","getProjectMinInvest()":"5f791a15","getProjectOwner()":"e6d68595","getProjectRaisedAmount()":"b3017fd0","getProjectSoftCapAmount()":"a9c51b70","getProjectSoftCapReached()":"9953c210","getProjectStartTime()":"f4390f02","getProjectTokenAddress()":"7cbb7b46","getProjectTokenToppedUpAmt()":"9efda4d7","getRedeemAmount()":"be9d323c","getReserveInvestment()":"ccb9dc8b","getTimeLeftUntilProjecctEnd()":"7e53614f","getUserDepositAmount(address)":"0cec2a76","getVAssetAddress()":"bfccc658","getWithdrawAmount()":"027932f9","investProject(uint256)":"b3a4faa2","isProjectActive()":"4d900f63","isProjectFullyToppedUp()":"f5e430c5","isVAssetAcceptedByProject(address)":"e89b1fec","isWhitelisted(address)":"3af32abf","joinWhitelist()":"a9518e88","owner()":"8da5cb5b","redeemTokens()":"e9a9c50c","refundToken()":"5cb732be","renounceOwnership()":"715018a6","slpxAddress()":"f728186d","transferOwnership(address)":"f2fde38b","withdrawFund()":"e07fa3c1"},"id":0}