{
  "abi": [
    {
      "type": "constructor",
      "inputs": [
        {
          "name": "_slpxAddress",
          "type": "address",
          "internalType": "address"
        }
      ],
      "stateMutability": "nonpayable"
    },
    {
      "type": "function",
      "name": "checkPoolIsValid",
      "inputs": [
        {
          "name": "poolAddress",
          "type": "address",
          "internalType": "address"
        }
      ],
      "outputs": [
        {
          "name": "",
          "type": "bool",
          "internalType": "bool"
        }
      ],
      "stateMutability": "view"
    },
    {
      "type": "function",
      "name": "createProjectPool",
      "inputs": [
        {
          "name": "tokenAddress",
          "type": "address",
          "internalType": "address"
        },
        {
          "name": "pricePerToken",
          "type": "uint256",
          "internalType": "uint256"
        },
        {
          "name": "startTime",
          "type": "uint256",
          "internalType": "uint256"
        },
        {
          "name": "endTime",
          "type": "uint256",
          "internalType": "uint256"
        },
        {
          "name": "minInvest",
          "type": "uint256",
          "internalType": "uint256"
        },
        {
          "name": "maxInvest",
          "type": "uint256",
          "internalType": "uint256"
        },
        {
          "name": "hardCapAmount",
          "type": "uint256",
          "internalType": "uint256"
        },
        {
          "name": "softCapAmount",
          "type": "uint256",
          "internalType": "uint256"
        },
        {
          "name": "rewardRate",
          "type": "uint256",
          "internalType": "uint256"
        },
        {
          "name": "acceptedVAsset",
          "type": "address",
          "internalType": "address"
        }
      ],
      "outputs": [
        {
          "name": "",
          "type": "uint256",
          "internalType": "uint256"
        }
      ],
      "stateMutability": "nonpayable"
    },
    {
      "type": "function",
      "name": "currentProjectId",
      "inputs": [],
      "outputs": [
        {
          "name": "",
          "type": "uint256",
          "internalType": "uint256"
        }
      ],
      "stateMutability": "view"
    },
    {
      "type": "function",
      "name": "getProjectPoolAddress",
      "inputs": [
        {
          "name": "projectId",
          "type": "uint256",
          "internalType": "uint256"
        }
      ],
      "outputs": [
        {
          "name": "",
          "type": "address",
          "internalType": "address"
        }
      ],
      "stateMutability": "view"
    },
    {
      "type": "function",
      "name": "owner",
      "inputs": [],
      "outputs": [
        {
          "name": "",
          "type": "address",
          "internalType": "address"
        }
      ],
      "stateMutability": "view"
    },
    {
      "type": "function",
      "name": "renounceOwnership",
      "inputs": [],
      "outputs": [],
      "stateMutability": "nonpayable"
    },
    {
      "type": "function",
      "name": "setSlpxAddress",
      "inputs": [
        {
          "name": "_slpxAddress",
          "type": "address",
          "internalType": "address"
        }
      ],
      "outputs": [],
      "stateMutability": "nonpayable"
    },
    {
      "type": "function",
      "name": "slpxAddress",
      "inputs": [],
      "outputs": [
        {
          "name": "",
          "type": "address",
          "internalType": "address"
        }
      ],
      "stateMutability": "view"
    },
    {
      "type": "function",
      "name": "transferOwnership",
      "inputs": [
        {
          "name": "newOwner",
          "type": "address",
          "internalType": "address"
        }
      ],
      "outputs": [],
      "stateMutability": "nonpayable"
    },
    {
      "type": "event",
      "name": "OwnershipTransferred",
      "inputs": [
        {
          "name": "previousOwner",
          "type": "address",
          "indexed": true,
          "internalType": "address"
        },
        {
          "name": "newOwner",
          "type": "address",
          "indexed": true,
          "internalType": "address"
        }
      ],
      "anonymous": false
    },
    {
      "type": "event",
      "name": "ProjectPoolCreated",
      "inputs": [
        {
          "name": "projectOwner",
          "type": "address",
          "indexed": true,
          "internalType": "address"
        },
        {
          "name": "tokenAddress",
          "type": "address",
          "indexed": true,
          "internalType": "address"
        },
        {
          "name": "projectId",
          "type": "uint256",
          "indexed": false,
          "internalType": "uint256"
        },
        {
          "name": "startTime",
          "type": "uint256",
          "indexed": false,
          "internalType": "uint256"
        },
        {
          "name": "endTime",
          "type": "uint256",
          "indexed": false,
          "internalType": "uint256"
        }
      ],
      "anonymous": false
    },
    {
      "type": "error",
      "name": "InvalidProjectId",
      "inputs": []
    },
    {
      "type": "error",
      "name": "OwnableInvalidOwner",
      "inputs": [
        {
          "name": "owner",
          "type": "address",
          "internalType": "address"
        }
      ]
    },
    {
      "type": "error",
      "name": "OwnableUnauthorizedAccount",
      "inputs": [
        {
          "name": "account",
          "type": "address",
          "internalType": "address"
        }
      ]
    }
  ],
  "bytecode": {
    "object": "0x6080604052600160035534801561001557600080fd5b50604051611bb9380380611bb9833981016040819052610034916100d9565b338061005a57604051631e4fbdf760e01b81526000600482015260240160405180910390fd5b61006381610089565b50600480546001600160a01b0319166001600160a01b0392909216919091179055610109565b600080546001600160a01b038381166001600160a01b0319831681178455604051919092169283917f8be0079c531659141344cd1fd0a4f28419497f9722a3daafe3b4186f6b6457e09190a35050565b6000602082840312156100eb57600080fd5b81516001600160a01b038116811461010257600080fd5b9392505050565b611aa1806101186000396000f3fe608060405234801561001057600080fd5b50600436106100935760003560e01c80638da5cb5b116100665780638da5cb5b146100e4578063a4082d7414610109578063f2fde38b1461011c578063f728186d1461012f578063fc56620e1461014257600080fd5b80632969be221461009857806335dc26a5146100b4578063715018a6146100c95780637747e83c146100d1575b600080fd5b6100a160035481565b6040519081526020015b60405180910390f35b6100c76100c2366004610463565b61017e565b005b6100c76101a8565b6100a16100df366004610485565b6101bc565b6000546001600160a01b03165b6040516001600160a01b0390911681526020016100ab565b6100f1610117366004610507565b61032e565b6100c761012a366004610463565b61037a565b6004546100f1906001600160a01b031681565b61016e610150366004610463565b6001600160a01b031660009081526002602052604090205460ff1690565b60405190151581526020016100ab565b6101866103bd565b600480546001600160a01b0319166001600160a01b0392909216919091179055565b6101b06103bd565b6101ba60006103ea565b565b600080339050600060035490506000828e8e8e8e8e8e8e8e8e8e600460009054906101000a90046001600160a01b03166040516101f89061043a565b6001600160a01b039c8d1681529a8c1660208c015260408b019990995260608a0197909752608089019590955260a088019390935260c087019190915260e0860152610100850152610120840152831661014083015290911661016082015261018001604051809103906000f080158015610277573d6000803e3d6000fd5b50600083815260016020818152604080842080546001600160a01b0319166001600160a01b038716908117909155845260029091528220805460ff1916909117905560038054929350906102ca83610520565b909155505060408051838152602081018e90529081018c90526001600160a01b038f169033907f39e26cf367532c84702926aedebda33c8898c62648039128a9aa24d2d5ea4dec9060600160405180910390a3509c9b505050505050505050505050565b60008160035481118061033f575080155b1561035d57604051632af342d760e21b815260040160405180910390fd5b50506000908152600160205260409020546001600160a01b031690565b6103826103bd565b6001600160a01b0381166103b157604051631e4fbdf760e01b8152600060048201526024015b60405180910390fd5b6103ba816103ea565b50565b6000546001600160a01b031633146101ba5760405163118cdaa760e01b81523360048201526024016103a8565b600080546001600160a01b038381166001600160a01b0319831681178455604051919092169283917f8be0079c531659141344cd1fd0a4f28419497f9722a3daafe3b4186f6b6457e09190a35050565b6115248061054883390190565b80356001600160a01b038116811461045e57600080fd5b919050565b60006020828403121561047557600080fd5b61047e82610447565b9392505050565b6000806000806000806000806000806101408b8d0312156104a557600080fd5b6104ae8b610447565b995060208b0135985060408b0135975060608b0135965060808b0135955060a08b0135945060c08b0135935060e08b013592506101008b013591506104f66101208c01610447565b90509295989b9194979a5092959850565b60006020828403121561051957600080fd5b5035919050565b60006001820161054057634e487b7160e01b600052601160045260246000fd5b506001019056fe60a06040526001600f553480156200001657600080fd5b50604051620015243803806200152483398101604081905262000039916200025e565b8b6001600160a01b0381166200006957604051631e4fbdf760e01b81526000600482015260240160405180910390fd5b6200007481620001f1565b50600180558b6001600160a01b038116620000a25760405163d92e233d60e01b815260040160405180910390fd5b851580620000b05750848611155b15620000cf57604051636cbdb61f60e01b815260040160405180910390fd5b60008511620000f157604051635046b82960e11b815260040160405180910390fd5b861580620000fe57508587115b806200010957508787105b1562000128576040516301c9409d60e31b815260040160405180910390fd5b600088116200014a57604051630c8b846560e41b815260040160405180910390fd5b428a1080620001585750888a115b1562000177576040516353de4ffb60e11b815260040160405180910390fd5b50600380546001600160a01b03199081166001600160a01b039e8f16179091556004805482169c8e169c909c17909b556005999099556006979097556007959095556000600855600b93909355600c91909155600955600a55600d805490941691851691909117909255600e91909155166080526200030b565b600080546001600160a01b038381166001600160a01b0319831681178455604051919092169283917f8be0079c531659141344cd1fd0a4f28419497f9722a3daafe3b4186f6b6457e09190a35050565b80516001600160a01b03811681146200025957600080fd5b919050565b6000806000806000806000806000806000806101808d8f0312156200028257600080fd5b6200028d8d62000241565b9b506200029d60208e0162000241565b9a5060408d0151995060608d0151985060808d0151975060a08d0151965060c08d0151955060e08d015194506101008d015193506101208d01519250620002e86101408e0162000241565b9150620002f96101608e0162000241565b90509295989b509295989b509295989b565b6080516111fd6200032760003960006103b401526111fd6000f3fe608060405234801561001057600080fd5b50600436106101e55760003560e01c80639dbf77c11161010f578063ccb9dc8b116100a2578063e9a9c50c11610071578063e9a9c50c1461038c578063f2fde38b14610394578063f4390f02146103a7578063f728186d146103af57600080fd5b8063ccb9dc8b14610349578063e07fa3c114610351578063e6d6859514610359578063e89b1fec1461036a57600080fd5b8063b3017fd0116100de578063b3017fd01461031e578063b3a4faa214610326578063b5697a1c14610339578063c868ba9a1461034157600080fd5b80639dbf77c1146102e4578063a9518e8814610306578063a96fd5d81461030e578063a9c51b701461031657600080fd5b80635eb5e2f4116101875780637e53614f116101565780637e53614f146102cb5780638da5cb5b146102d357806395c09054146102e45780639953c210146102f957600080fd5b80635eb5e2f41461028e5780635f791a15146102b357806366c561f8146102bb578063715018a6146102c357600080fd5b80633af32abf116101c35780633af32abf146102365780634d900f63146102725780635a604c521461027c5780635cb732be1461028457600080fd5b8063027932f9146101ea5780630cec2a76146102055780630fd4a2a91461022e575b600080fd5b6101f26103d6565b6040519081526020015b60405180910390f35b6101f2610213366004610f1a565b6001600160a01b031660009081526010602052604090205490565b6009546101f2565b610262610244366004610f1a565b6001600160a01b031660009081526011602052604090205460ff1690565b60405190151581526020016101fc565b6007544211610262565b6101f2600481565b61028c61041d565b005b600d546001600160a01b03165b6040516001600160a01b0390911681526020016101fc565b600b546101f2565b6007546101f2565b61028c6105ad565b6101f26105c1565b6000546001600160a01b031661029b565b6102ec6105d7565b6040516101fc9190610f4a565b600a546008541015610262565b61028c6106e8565b600c546101f2565b600a546101f2565b6008546101f2565b61028c61033436600461100c565b6107fb565b6101f2603281565b600f546101f2565b6101f2610979565b61028c61098b565b6003546001600160a01b031661029b565b610262610378366004610f1a565b600d546001600160a01b0391821691161490565b61028c610b04565b61028c6103a2366004610f1a565b610cb7565b6006546101f2565b61029b7f000000000000000000000000000000000000000000000000000000000000000081565b6000806103e260085490565b905060006103f26004600a611121565b6103fd60328461112d565b6104079190611144565b905060006104158284611166565b949350505050565b60075442101561044057604051632ea42c6f60e11b815260040160405180910390fd5b600a546008541015610464576040516250b2a360e81b815260040160405180910390fd5b33600081815260126020526040902054806104bb5760405162461bcd60e51b8152602060048201526012602482015271139bc81d1bdad95b881d1bc81c99599d5b9960721b60448201526064015b60405180910390fd5b600d5460405163a9059cbb60e01b81526001600160a01b03848116600483015260248201849052600092169063a9059cbb906044016020604051808303816000875af115801561050f573d6000803e3d6000fd5b505050506040513d601f19601f820116820180604052508101906105339190611179565b90508061055357604051633c9fd93960e21b815260040160405180910390fd5b6001600160a01b03831660008181526012602090815260408083209290925560025491518581529192917ff3a670cd3af7d64b488926880889d08a8585a138ff455227af6737339a1ec262910160405180910390a3505050565b6105b5610cf5565b6105bf6000610d22565b565b6007546000906105d2904290611166565b905090565b61065d604051806101a001604052806000815260200160006001600160a01b0316815260200160006001600160a01b03168152602001600081526020016000815260200160008152602001600081526020016000815260200160008152602001600081526020016000815260200160006001600160a01b03168152602001600081525090565b50604080516101a08101825260025481526003546001600160a01b0390811660208301526004548116928201929092526005546060820152600654608082015260075460a082015260085460c082015260095460e0820152600a54610100820152600b54610120820152600c54610140820152600d54909116610160820152600e5461018082015290565b60065442101561070b57604051632fb33b7b60e21b815260040160405180910390fd5b60075442111561072e5760405163ef9998dd60e01b815260040160405180910390fd5b610736610d72565b3360008181526011602052604090205460ff16156107675760405163b73e95e160e01b815260040160405180910390fd5b6009546008541061078b57604051631c4af3c960e11b815260040160405180910390fd5b60025460405133907f6ea640312e182de387819fbeb13be00db3171a445412852248559054871c419990600090a36001600160a01b0381166000908152601160205260408120805460ff191660011790556107e4610979565b90506107f03382610d9c565b50506105bf60018055565b60065442101561081e57604051632fb33b7b60e21b815260040160405180910390fd5b6007544211156108415760405163ef9998dd60e01b815260040160405180910390fd5b3360008181526011602052604090205460ff1661087157604051632ba75b2560e01b815260040160405180910390fd5b610879610d72565b3360006108846105d7565b905060006108a7836001600160a01b031660009081526010602052604090205490565b905060006108b5868361119b565b90508261012001518110156108dd5760405163753f384d60e11b815260040160405180910390fd5b82610140015181111561090357604051631ba05a5760e31b815260040160405180910390fd5b82516040518781526001600160a01b038616907f9e9d071824fd57d062ca63fd8b786d8da48a6807eebbcb2d83f9e8d21398e28c9060200160405180910390a38060026006016000828254610958919061119b565b9091555061096890508487610d9c565b5050505061097560018055565b5050565b600b546000906105d290600290611144565b6003546001600160a01b0316336001600160a01b0316146109bf57604051637c2411e960e01b815260040160405180910390fd5b6109c7610d72565b6007544210156109ea57604051632ea42c6f60e11b815260040160405180910390fd5b600a546008541015610a0e576040516250b2a360e81b815260040160405180910390fd5b6000610a186103d6565b600d549091506000906001600160a01b031663a9059cbb336040516001600160e01b031960e084901b1681526001600160a01b039091166004820152602481018590526044016020604051808303816000875af1158015610a7d573d6000803e3d6000fd5b505050506040513d601f19601f82011682018060405250810190610aa19190611179565b905080610ac157604051633c9fd93960e21b815260040160405180910390fd5b60025460405183815233907f2a21ff03a0e8112a6f7dd57a7a1e07b922c2cb6b55fb1f3ef2e7a0084eaa6dc29060200160405180910390a350506105bf60018055565b600754421015610b2757604051632ea42c6f60e11b815260040160405180910390fd5b600a546008541015610b4b576040516250b2a360e81b815260040160405180910390fd5b3360008181526012602052604090205480610b9e5760405162461bcd60e51b81526020600482015260136024820152724e6f20746f6b656e7320746f2072656465656d60681b60448201526064016104b2565b600e54600090610bae908361112d565b90506000610bbc828461119b565b6004805460405163a9059cbb60e01b81526001600160a01b03888116938201939093526024810184905292935060009291169063a9059cbb906044016020604051808303816000875af1158015610c17573d6000803e3d6000fd5b505050506040513d601f19601f82011682018060405250810190610c3b9190611179565b905080610c5b57604051633c9fd93960e21b815260040160405180910390fd5b6001600160a01b03851660008181526012602090815260408083209290925560025491518581529192917ff3a670cd3af7d64b488926880889d08a8585a138ff455227af6737339a1ec262910160405180910390a35050505050565b610cbf610cf5565b6001600160a01b038116610ce957604051631e4fbdf760e01b8152600060048201526024016104b2565b610cf281610d22565b50565b6000546001600160a01b031633146105bf5760405163118cdaa760e01b81523360048201526024016104b2565b600080546001600160a01b038381166001600160a01b0319831681178455604051919092169283917f8be0079c531659141344cd1fd0a4f28419497f9722a3daafe3b4186f6b6457e09190a35050565b600260015403610d9557604051633ee5aeb560e01b815260040160405180910390fd5b6002600155565b6000610db0600d546001600160a01b031690565b604051636eb1769f60e11b81526001600160a01b03858116600483015230602483015291925060009183169063dd62ed3e90604401602060405180830381865afa158015610e02573d6000803e3d6000fd5b505050506040513d601f19601f82011682018060405250810190610e2691906111ae565b905082811015610e495760405163bd0a4d7160e01b815260040160405180910390fd5b6001600160a01b03841660009081526010602052604081208054859290610e7190849061119b565b90915550506040516323b872dd60e01b81526001600160a01b03858116600483015230602483015260448201859052600091908416906323b872dd906064016020604051808303816000875af1158015610ecf573d6000803e3d6000fd5b505050506040513d601f19601f82011682018060405250810190610ef39190611179565b905080610f1357604051633c9fd93960e21b815260040160405180910390fd5b5050505050565b600060208284031215610f2c57600080fd5b81356001600160a01b0381168114610f4357600080fd5b9392505050565b815181526020808301516101a0830191610f6e908401826001600160a01b03169052565b506040830151610f8960408401826001600160a01b03169052565b50606083015160608301526080830151608083015260a083015160a083015260c083015160c083015260e083015160e083015261010080840151818401525061012080840151818401525061014080840151818401525061016080840151610ffb828501826001600160a01b03169052565b505061018092830151919092015290565b60006020828403121561101e57600080fd5b5035919050565b634e487b7160e01b600052601160045260246000fd5b600181815b8085111561107657816000190482111561105c5761105c611025565b8085161561106957918102915b93841c9390800290611040565b509250929050565b60008261108d5750600161111b565b8161109a5750600061111b565b81600181146110b057600281146110ba576110d6565b600191505061111b565b60ff8411156110cb576110cb611025565b50506001821b61111b565b5060208310610133831016604e8410600b84101617156110f9575081810a61111b565b611103838361103b565b806000190482111561111757611117611025565b0290505b92915050565b6000610f43838361107e565b808202811582820484141761111b5761111b611025565b60008261116157634e487b7160e01b600052601260045260246000fd5b500490565b8181038181111561111b5761111b611025565b60006020828403121561118b57600080fd5b81518015158114610f4357600080fd5b8082018082111561111b5761111b611025565b6000602082840312156111c057600080fd5b505191905056fea26469706673582212209c9587c4158e021d3bbc83ac31f1830dde943ad17601eaa1b3f001e7da762c9b64736f6c63430008180033a26469706673582212202ba79acb572b87e58dc99d5670b3c07d86d2d34d9b665ec82bccb44c0ae7498664736f6c63430008180033",
    "linkReferences": {}
  },
  "methodIdentifiers": {
    "checkPoolIsValid(address)": "fc56620e",
    "createProjectPool(address,uint256,uint256,uint256,uint256,uint256,uint256,uint256,uint256,address)": "7747e83c",
    "currentProjectId()": "2969be22",
    "getProjectPoolAddress(uint256)": "a4082d74",
    "owner()": "8da5cb5b",
    "renounceOwnership()": "715018a6",
    "setSlpxAddress(address)": "35dc26a5",
    "slpxAddress()": "f728186d",
    "transferOwnership(address)": "f2fde38b"
  },
  "id": 1
}