{
    "abi": [
        {
            "type": "constructor",
            "inputs": [
                {
                    "name": "projectOwner",
                    "type": "address",
                    "internalType": "address"
                },
                {
                    "name": "tokenAddress",
                    "type": "address",
                    "internalType": "address"
                },
                {
                    "name": "pricePerToken",
                    "type": "uint256",
                    "internalType": "uint256"
                },
                {
                    "name": "startTime",
                    "type": "uint256",
                    "internalType": "uint256"
                },
                {
                    "name": "endTime",
                    "type": "uint256",
                    "internalType": "uint256"
                },
                {
                    "name": "minInvest",
                    "type": "uint256",
                    "internalType": "uint256"
                },
                {
                    "name": "maxInvest",
                    "type": "uint256",
                    "internalType": "uint256"
                },
                {
                    "name": "hardCapAmount",
                    "type": "uint256",
                    "internalType": "uint256"
                },
                {
                    "name": "softCapAmount",
                    "type": "uint256",
                    "internalType": "uint256"
                },
                {
                    "name": "rewardRate",
                    "type": "uint256",
                    "internalType": "uint256"
                },
                {
                    "name": "acceptedVAsset",
                    "type": "address",
                    "internalType": "address"
                },
                {
                    "name": "_slpxAddress",
                    "type": "address",
                    "internalType": "address"
                }
            ],
            "stateMutability": "nonpayable"
        },
        {
            "type": "function",
            "name": "IDO_FEE_RATE",
            "inputs": [],
            "outputs": [
                {
                    "name": "",
                    "type": "uint256",
                    "internalType": "uint256"
                }
            ],
            "stateMutability": "view"
        },
        {
            "type": "function",
            "name": "RATE_DECIMALS",
            "inputs": [],
            "outputs": [
                {
                    "name": "",
                    "type": "uint256",
                    "internalType": "uint256"
                }
            ],
            "stateMutability": "view"
        },
        {
            "type": "function",
            "name": "getAcceptedVAsset",
            "inputs": [],
            "outputs": [
                {
                    "name": "",
                    "type": "address",
                    "internalType": "address"
                }
            ],
            "stateMutability": "view"
        },
        {
            "type": "function",
            "name": "getAmountToTopUp",
            "inputs": [],
            "outputs": [
                {
                    "name": "",
                    "type": "uint256",
                    "internalType": "uint256"
                }
            ],
            "stateMutability": "view"
        },
        {
            "type": "function",
            "name": "getPricePerToken",
            "inputs": [],
            "outputs": [
                {
                    "name": "",
                    "type": "uint256",
                    "internalType": "uint256"
                }
            ],
            "stateMutability": "view"
        },
        {
            "type": "function",
            "name": "getProjectDetail",
            "inputs": [],
            "outputs": [
                {
                    "name": "",
                    "type": "tuple",
                    "internalType": "struct ProjectPool.ProjectDetail",
                    "components": [
                        {
                            "name": "projectId",
                            "type": "uint256",
                            "internalType": "uint256"
                        },
                        {
                            "name": "projectOwner",
                            "type": "address",
                            "internalType": "address"
                        },
                        {
                            "name": "tokenAddress",
                            "type": "address",
                            "internalType": "address"
                        },
                        {
                            "name": "pricePerToken",
                            "type": "uint256",
                            "internalType": "uint256"
                        },
                        {
                            "name": "startTime",
                            "type": "uint256",
                            "internalType": "uint256"
                        },
                        {
                            "name": "endTime",
                            "type": "uint256",
                            "internalType": "uint256"
                        },
                        {
                            "name": "raisedAmount",
                            "type": "uint256",
                            "internalType": "uint256"
                        },
                        {
                            "name": "hardCapAmount",
                            "type": "uint256",
                            "internalType": "uint256"
                        },
                        {
                            "name": "softCapAmount",
                            "type": "uint256",
                            "internalType": "uint256"
                        },
                        {
                            "name": "minInvest",
                            "type": "uint256",
                            "internalType": "uint256"
                        },
                        {
                            "name": "maxInvest",
                            "type": "uint256",
                            "internalType": "uint256"
                        },
                        {
                            "name": "acceptedVAsset",
                            "type": "address",
                            "internalType": "address"
                        },
                        {
                            "name": "rewardRate",
                            "type": "uint256",
                            "internalType": "uint256"
                        }
                    ]
                }
            ],
            "stateMutability": "view"
        },
        {
            "type": "function",
            "name": "getProjectEndTime",
            "inputs": [],
            "outputs": [
                {
                    "name": "",
                    "type": "uint256",
                    "internalType": "uint256"
                }
            ],
            "stateMutability": "view"
        },
        {
            "type": "function",
            "name": "getProjectFullDetails",
            "inputs": [],
            "outputs": [
                {
                    "name": "",
                    "type": "tuple",
                    "internalType": "struct ProjectPool.ProjectDetail",
                    "components": [
                        {
                            "name": "projectId",
                            "type": "uint256",
                            "internalType": "uint256"
                        },
                        {
                            "name": "projectOwner",
                            "type": "address",
                            "internalType": "address"
                        },
                        {
                            "name": "tokenAddress",
                            "type": "address",
                            "internalType": "address"
                        },
                        {
                            "name": "pricePerToken",
                            "type": "uint256",
                            "internalType": "uint256"
                        },
                        {
                            "name": "startTime",
                            "type": "uint256",
                            "internalType": "uint256"
                        },
                        {
                            "name": "endTime",
                            "type": "uint256",
                            "internalType": "uint256"
                        },
                        {
                            "name": "raisedAmount",
                            "type": "uint256",
                            "internalType": "uint256"
                        },
                        {
                            "name": "hardCapAmount",
                            "type": "uint256",
                            "internalType": "uint256"
                        },
                        {
                            "name": "softCapAmount",
                            "type": "uint256",
                            "internalType": "uint256"
                        },
                        {
                            "name": "minInvest",
                            "type": "uint256",
                            "internalType": "uint256"
                        },
                        {
                            "name": "maxInvest",
                            "type": "uint256",
                            "internalType": "uint256"
                        },
                        {
                            "name": "acceptedVAsset",
                            "type": "address",
                            "internalType": "address"
                        },
                        {
                            "name": "rewardRate",
                            "type": "uint256",
                            "internalType": "uint256"
                        }
                    ]
                }
            ],
            "stateMutability": "view"
        },
        {
            "type": "function",
            "name": "getProjectHardCapAmount",
            "inputs": [],
            "outputs": [
                {
                    "name": "",
                    "type": "uint256",
                    "internalType": "uint256"
                }
            ],
            "stateMutability": "view"
        },
        {
            "type": "function",
            "name": "getProjectMaxInvest",
            "inputs": [],
            "outputs": [
                {
                    "name": "",
                    "type": "uint256",
                    "internalType": "uint256"
                }
            ],
            "stateMutability": "view"
        },
        {
            "type": "function",
            "name": "getProjectMinInvest",
            "inputs": [],
            "outputs": [
                {
                    "name": "",
                    "type": "uint256",
                    "internalType": "uint256"
                }
            ],
            "stateMutability": "view"
        },
        {
            "type": "function",
            "name": "getProjectOwner",
            "inputs": [],
            "outputs": [
                {
                    "name": "",
                    "type": "address",
                    "internalType": "address"
                }
            ],
            "stateMutability": "view"
        },
        {
            "type": "function",
            "name": "getProjectRaisedAmount",
            "inputs": [],
            "outputs": [
                {
                    "name": "",
                    "type": "uint256",
                    "internalType": "uint256"
                }
            ],
            "stateMutability": "view"
        },
        {
            "type": "function",
            "name": "getProjectSoftCapAmount",
            "inputs": [],
            "outputs": [
                {
                    "name": "",
                    "type": "uint256",
                    "internalType": "uint256"
                }
            ],
            "stateMutability": "view"
        },
        {
            "type": "function",
            "name": "getProjectSoftCapReached",
            "inputs": [],
            "outputs": [
                {
                    "name": "",
                    "type": "bool",
                    "internalType": "bool"
                }
            ],
            "stateMutability": "view"
        },
        {
            "type": "function",
            "name": "getProjectStartTime",
            "inputs": [],
            "outputs": [
                {
                    "name": "",
                    "type": "uint256",
                    "internalType": "uint256"
                }
            ],
            "stateMutability": "view"
        },
        {
            "type": "function",
            "name": "getProjectTokenAddress",
            "inputs": [],
            "outputs": [
                {
                    "name": "",
                    "type": "address",
                    "internalType": "address"
                }
            ],
            "stateMutability": "view"
        },
        {
            "type": "function",
            "name": "getProjectTokenToppedUpAmt",
            "inputs": [],
            "outputs": [
                {
                    "name": "",
                    "type": "uint256",
                    "internalType": "uint256"
                }
            ],
            "stateMutability": "view"
        },
        {
            "type": "function",
            "name": "getProjectWithdrawState",
            "inputs": [],
            "outputs": [
                {
                    "name": "",
                    "type": "bool",
                    "internalType": "bool"
                }
            ],
            "stateMutability": "view"
        },
        {
            "type": "function",
            "name": "getRedeemAmount",
            "inputs": [],
            "outputs": [
                {
                    "name": "",
                    "type": "uint256",
                    "internalType": "uint256"
                }
            ],
            "stateMutability": "view"
        },
        {
            "type": "function",
            "name": "getReserveInvestment",
            "inputs": [],
            "outputs": [
                {
                    "name": "",
                    "type": "uint256",
                    "internalType": "uint256"
                }
            ],
            "stateMutability": "view"
        },
        {
            "type": "function",
            "name": "getTimeLeftUntilProjecctEnd",
            "inputs": [],
            "outputs": [
                {
                    "name": "",
                    "type": "uint256",
                    "internalType": "uint256"
                }
            ],
            "stateMutability": "view"
        },
        {
            "type": "function",
            "name": "getUserDepositAmount",
            "inputs": [
                {
                    "name": "_userAdr",
                    "type": "address",
                    "internalType": "address"
                }
            ],
            "outputs": [
                {
                    "name": "",
                    "type": "uint256",
                    "internalType": "uint256"
                }
            ],
            "stateMutability": "view"
        },
        {
            "type": "function",
            "name": "getVAssetAddress",
            "inputs": [],
            "outputs": [
                {
                    "name": "",
                    "type": "address",
                    "internalType": "address"
                }
            ],
            "stateMutability": "view"
        },
        {
            "type": "function",
            "name": "getWithdrawAmount",
            "inputs": [],
            "outputs": [
                {
                    "name": "",
                    "type": "uint256",
                    "internalType": "uint256"
                }
            ],
            "stateMutability": "view"
        },
        {
            "type": "function",
            "name": "investProject",
            "inputs": [
                {
                    "name": "amount",
                    "type": "uint256",
                    "internalType": "uint256"
                }
            ],
            "outputs": [],
            "stateMutability": "nonpayable"
        },
        {
            "type": "function",
            "name": "isProjectActive",
            "inputs": [],
            "outputs": [
                {
                    "name": "",
                    "type": "bool",
                    "internalType": "bool"
                }
            ],
            "stateMutability": "view"
        },
        {
            "type": "function",
            "name": "isProjectFullyToppedUp",
            "inputs": [],
            "outputs": [
                {
                    "name": "",
                    "type": "bool",
                    "internalType": "bool"
                }
            ],
            "stateMutability": "view"
        },
        {
            "type": "function",
            "name": "isVAssetAcceptedByProject",
            "inputs": [
                {
                    "name": "vAssetAddress",
                    "type": "address",
                    "internalType": "address"
                }
            ],
            "outputs": [
                {
                    "name": "",
                    "type": "bool",
                    "internalType": "bool"
                }
            ],
            "stateMutability": "view"
        },
        {
            "type": "function",
            "name": "isWhitelisted",
            "inputs": [
                {
                    "name": "_address",
                    "type": "address",
                    "internalType": "address"
                }
            ],
            "outputs": [
                {
                    "name": "",
                    "type": "bool",
                    "internalType": "bool"
                }
            ],
            "stateMutability": "view"
        },
        {
            "type": "function",
            "name": "joinWhitelist",
            "inputs": [],
            "outputs": [],
            "stateMutability": "nonpayable"
        },
        {
            "type": "function",
            "name": "owner",
            "inputs": [],
            "outputs": [
                {
                    "name": "",
                    "type": "address",
                    "internalType": "address"
                }
            ],
            "stateMutability": "view"
        },
        {
            "type": "function",
            "name": "redeemTokens",
            "inputs": [],
            "outputs": [],
            "stateMutability": "nonpayable"
        },
        {
            "type": "function",
            "name": "refundToken",
            "inputs": [],
            "outputs": [],
            "stateMutability": "nonpayable"
        },
        {
            "type": "function",
            "name": "renounceOwnership",
            "inputs": [],
            "outputs": [],
            "stateMutability": "nonpayable"
        },
        {
            "type": "function",
            "name": "slpxAddress",
            "inputs": [],
            "outputs": [
                {
                    "name": "",
                    "type": "address",
                    "internalType": "address"
                }
            ],
            "stateMutability": "view"
        },
        {
            "type": "function",
            "name": "slpxContract",
            "inputs": [],
            "outputs": [
                {
                    "name": "",
                    "type": "address",
                    "internalType": "contract ISlpx"
                }
            ],
            "stateMutability": "view"
        },
        {
            "type": "function",
            "name": "slpxWithdrawFund",
            "inputs": [],
            "outputs": [],
            "stateMutability": "nonpayable"
        },
        {
            "type": "function",
            "name": "transferOwnership",
            "inputs": [
                {
                    "name": "newOwner",
                    "type": "address",
                    "internalType": "address"
                }
            ],
            "outputs": [],
            "stateMutability": "nonpayable"
        },
        {
            "type": "function",
            "name": "withdrawFund",
            "inputs": [],
            "outputs": [],
            "stateMutability": "nonpayable"
        },
        {
            "type": "function",
            "name": "withdrawed",
            "inputs": [],
            "outputs": [
                {
                    "name": "",
                    "type": "bool",
                    "internalType": "bool"
                }
            ],
            "stateMutability": "view"
        },
        {
            "type": "event",
            "name": "Invested",
            "inputs": [
                {
                    "name": "user",
                    "type": "address",
                    "indexed": true,
                    "internalType": "address"
                },
                {
                    "name": "projectId",
                    "type": "uint256",
                    "indexed": true,
                    "internalType": "uint256"
                },
                {
                    "name": "amount",
                    "type": "uint256",
                    "indexed": false,
                    "internalType": "uint256"
                }
            ],
            "anonymous": false
        },
        {
            "type": "event",
            "name": "OwnershipTransferred",
            "inputs": [
                {
                    "name": "previousOwner",
                    "type": "address",
                    "indexed": true,
                    "internalType": "address"
                },
                {
                    "name": "newOwner",
                    "type": "address",
                    "indexed": true,
                    "internalType": "address"
                }
            ],
            "anonymous": false
        },
        {
            "type": "event",
            "name": "ProjectCreated",
            "inputs": [
                {
                    "name": "projectOwner",
                    "type": "address",
                    "indexed": true,
                    "internalType": "address"
                },
                {
                    "name": "tokenAddress",
                    "type": "address",
                    "indexed": true,
                    "internalType": "address"
                },
                {
                    "name": "projectId",
                    "type": "uint256",
                    "indexed": false,
                    "internalType": "uint256"
                },
                {
                    "name": "pricePerToken",
                    "type": "uint256",
                    "indexed": false,
                    "internalType": "uint256"
                },
                {
                    "name": "startTime",
                    "type": "uint256",
                    "indexed": false,
                    "internalType": "uint256"
                },
                {
                    "name": "endTime",
                    "type": "uint256",
                    "indexed": false,
                    "internalType": "uint256"
                }
            ],
            "anonymous": false
        },
        {
            "type": "event",
            "name": "ProjectWithdrawn",
            "inputs": [
                {
                    "name": "user",
                    "type": "address",
                    "indexed": true,
                    "internalType": "address"
                },
                {
                    "name": "projectId",
                    "type": "uint256",
                    "indexed": true,
                    "internalType": "uint256"
                },
                {
                    "name": "amount",
                    "type": "uint256",
                    "indexed": false,
                    "internalType": "uint256"
                }
            ],
            "anonymous": false
        },
        {
            "type": "event",
            "name": "Redeemed",
            "inputs": [
                {
                    "name": "user",
                    "type": "address",
                    "indexed": true,
                    "internalType": "address"
                },
                {
                    "name": "projectId",
                    "type": "uint256",
                    "indexed": true,
                    "internalType": "uint256"
                },
                {
                    "name": "amount",
                    "type": "uint256",
                    "indexed": false,
                    "internalType": "uint256"
                }
            ],
            "anonymous": false
        },
        {
            "type": "event",
            "name": "Whitelisted",
            "inputs": [
                {
                    "name": "user",
                    "type": "address",
                    "indexed": true,
                    "internalType": "address"
                },
                {
                    "name": "projectId",
                    "type": "uint256",
                    "indexed": true,
                    "internalType": "uint256"
                }
            ],
            "anonymous": false
        },
        {
            "type": "error",
            "name": "AlreadyWhitelisted",
            "inputs": []
        },
        {
            "type": "error",
            "name": "AlreadyWithdraw",
            "inputs": []
        },
        {
            "type": "error",
            "name": "ERC20TransferFailed",
            "inputs": []
        },
        {
            "type": "error",
            "name": "HardCapExceeded",
            "inputs": []
        },
        {
            "type": "error",
            "name": "InvalidProjectHardCap",
            "inputs": []
        },
        {
            "type": "error",
            "name": "InvalidProjectId",
            "inputs": []
        },
        {
            "type": "error",
            "name": "InvalidProjectMaxInvestment",
            "inputs": []
        },
        {
            "type": "error",
            "name": "InvalidProjectMinInvestment",
            "inputs": []
        },
        {
            "type": "error",
            "name": "InvalidProjectSoftCap",
            "inputs": []
        },
        {
            "type": "error",
            "name": "InvalidProjectTimeframe",
            "inputs": []
        },
        {
            "type": "error",
            "name": "MaxInvestmentExceeded",
            "inputs": []
        },
        {
            "type": "error",
            "name": "MinInvestmentNotReached",
            "inputs": []
        },
        {
            "type": "error",
            "name": "NotEnoughERC20Allowance",
            "inputs": []
        },
        {
            "type": "error",
            "name": "NotProjectOwner",
            "inputs": []
        },
        {
            "type": "error",
            "name": "OwnableInvalidOwner",
            "inputs": [
                {
                    "name": "owner",
                    "type": "address",
                    "internalType": "address"
                }
            ]
        },
        {
            "type": "error",
            "name": "OwnableUnauthorizedAccount",
            "inputs": [
                {
                    "name": "account",
                    "type": "address",
                    "internalType": "address"
                }
            ]
        },
        {
            "type": "error",
            "name": "ProjectIDOHasEnded",
            "inputs": []
        },
        {
            "type": "error",
            "name": "ProjectIDOHasNotStarted",
            "inputs": []
        },
        {
            "type": "error",
            "name": "ProjectStillActive",
            "inputs": []
        },
        {
            "type": "error",
            "name": "ReentrancyGuardReentrantCall",
            "inputs": []
        },
        {
            "type": "error",
            "name": "SoftCapNotReach",
            "inputs": []
        },
        {
            "type": "error",
            "name": "TokenForSaleMustBePositive",
            "inputs": []
        },
        {
            "type": "error",
            "name": "TokenPriceMustBePositive",
            "inputs": []
        },
        {
            "type": "error",
            "name": "UserNotWhitelisted",
            "inputs": []
        },
        {
            "type": "error",
            "name": "ZeroAddress",
            "inputs": []
        }
    ],
    "bytecode": {
        "object": "0x60c060405234801561001057600080fd5b506040516119a03803806119a083398101604081905261002f91610254565b8b6001600160a01b03811661005e57604051631e4fbdf760e01b81526000600482015260240160405180910390fd5b610067816101e8565b50600180558b6001600160a01b0381166100945760405163d92e233d60e01b815260040160405180910390fd5b8515806100a15750848611155b156100bf57604051636cbdb61f60e01b815260040160405180910390fd5b600085116100e057604051635046b82960e11b815260040160405180910390fd5b8615806100ec57508587115b806100f657508787105b15610114576040516301c9409d60e31b815260040160405180910390fd5b6000881161013557604051630c8b846560e41b815260040160405180910390fd5b428a10806101425750888a115b15610160576040516353de4ffb60e11b815260040160405180910390fd5b50600380546001600160a01b03199081166001600160a01b039e8f16179091556004805482169c8e169c909c17909b556005999099556006979097556007959095556000600855600b93909355600c91909155600955600a55600d805490941691851691909117909255600e91909155600f805460ff1916905516608081905260a052610328565b600080546001600160a01b038381166001600160a01b0319831681178455604051919092169283917f8be0079c531659141344cd1fd0a4f28419497f9722a3daafe3b4186f6b6457e09190a35050565b80516001600160a01b038116811461024f57600080fd5b919050565b6000806000806000806000806000806000806101808d8f03121561027757600080fd5b6102808d610238565b9b5061028e60208e01610238565b9a50600060408e01519050809a5050600060608e0151905080995050600060808e0151905080985050600060a08e0151905080975050600060c08e0151905080965050600060e08e015190508095505060006101008e015190508094505060006101208e01519050809350506103076101408e01610238565b91506103166101608e01610238565b90509295989b509295989b509295989b565b60805160a05161164c6103546000396000818161035f0152610a950152600061049a015261164c6000f3fe608060405234801561001057600080fd5b50600436106102535760003560e01c80639efda4d711610146578063ca1e9738116100c3578063e9a9c50c11610087578063e9a9c50c1461045f578063f2fde38b14610467578063f4390f021461047a578063f55bb36c14610482578063f5e430c51461048d578063f728186d1461049557600080fd5b8063ca1e973814610414578063ccb9dc8b1461041c578063e07fa3c114610424578063e6d685951461042c578063e89b1fec1461043d57600080fd5b8063b3017fd01161010a578063b3017fd0146103e9578063b3a4faa2146103f1578063b5697a1c14610404578063be9d323c1461040c578063bfccc6581461030457600080fd5b80639efda4d7146103c1578063a9518e88146103c9578063a96fd5d8146103d1578063a9c51b70146103d9578063acf8d7ab146103e157600080fd5b806366c561f8116101d45780638da5cb5b116101985780638da5cb5b1461038157806395c09054146103925780639953c210146103a75780639a797128146103b45780639dbf77c11461039257600080fd5b806366c561f814610331578063715018a6146103395780637cbb7b46146103415780637e53614f146103525780638531d7311461035a57600080fd5b80634d900f631161021b5780634d900f63146102e85780635a604c52146102f25780635cb732be146102fa5780635eb5e2f4146103045780635f791a151461032957600080fd5b8063027932f9146102585780630cec2a76146102735780630fd4a2a91461029c5780633af32abf146102a4578063465a5044146102e0575b600080fd5b6102606104bc565b6040519081526020015b60405180910390f35b61026061028136600461133b565b6001600160a01b031660009081526010602052604090205490565b600954610260565b6102d06102b236600461133b565b6001600160a01b031660009081526011602052604090205460ff1690565b604051901515815260200161026a565b610260610503565b60075442116102d0565b610260600481565b6103026105ae565b005b600d546001600160a01b03165b6040516001600160a01b03909116815260200161026a565b600b54610260565b600754610260565b610302610708565b6004546001600160a01b0316610311565b61026061071c565b6103117f000000000000000000000000000000000000000000000000000000000000000081565b6000546001600160a01b0316610311565b61039a610732565b60405161026a9190611364565b600a5460085410156102d0565b600f546102d09060ff1681565b610260610843565b6103026108c1565b600c54610260565b600a54610260565b6103026109d4565b600854610260565b6103026103ff366004611426565b610b92565b610260603281565b610260610d10565b600554610260565b610260610d4c565b610302610d5e565b6003546001600160a01b0316610311565b6102d061044b36600461133b565b600d546001600160a01b0391821691161490565b610302610f1c565b61030261047536600461133b565b6110b5565b600654610260565b600f5460ff166102d0565b6102d06110f5565b6103117f000000000000000000000000000000000000000000000000000000000000000081565b6000806104c860085490565b905060006104d86004600a61153e565b6104e360328461154a565b6104ed9190611561565b905060006104fb8284611583565b949350505050565b60008061050f60095490565b905060006105256004546001600160a01b031690565b6001600160a01b031663313ce5676040518163ffffffff1660e01b8152600401602060405180830381865afa158015610562573d6000803e3d6000fd5b505050506040513d601f19601f820116820180604052508101906105869190611596565b60055490915060009061059a83600a6115b9565b6105a4908561154a565b6104fb9190611561565b6007544210156105d157604051632ea42c6f60e11b815260040160405180910390fd5b3360008181526011602052604090205460ff1661060157604051632ba75b2560e01b815260040160405180910390fd5b610609611116565b6000336001600160a01b0381811660008181526010602052604080822054600d54915163a9059cbb60e01b81526004810194909452602484018190529495509092169063a9059cbb906044016020604051808303816000875af1158015610674573d6000803e3d6000fd5b505050506040513d601f19601f8201168201806040525081019061069891906115c8565b9050806106b857604051633c9fd93960e21b815260040160405180910390fd5b6002546040518381526001600160a01b038516907ff3a670cd3af7d64b488926880889d08a8585a138ff455227af6737339a1ec2629060200160405180910390a350505061070560018055565b50565b610710611140565b61071a600061116d565b565b60075460009061072d904290611583565b905090565b6107b8604051806101a001604052806000815260200160006001600160a01b0316815260200160006001600160a01b03168152602001600081526020016000815260200160008152602001600081526020016000815260200160008152602001600081526020016000815260200160006001600160a01b03168152602001600081525090565b50604080516101a08101825260025481526003546001600160a01b0390811660208301526004548116928201929092526005546060820152600654608082015260075460a082015260085460c082015260095460e0820152600a54610100820152600b54610120820152600c54610140820152600d54909116610160820152600e5461018082015290565b60006108576004546001600160a01b031690565b6040516370a0823160e01b81523060048201526001600160a01b0391909116906370a0823190602401602060405180830381865afa15801561089d573d6000803e3d6000fd5b505050506040513d601f19601f8201168201806040525081019061072d91906115ea565b6006544210156108e457604051632fb33b7b60e21b815260040160405180910390fd5b6007544211156109075760405163ef9998dd60e01b815260040160405180910390fd5b61090f611116565b3360008181526011602052604090205460ff16156109405760405163b73e95e160e01b815260040160405180910390fd5b6009546008541061096457604051631c4af3c960e11b815260040160405180910390fd5b60025460405133907f6ea640312e182de387819fbeb13be00db3171a445412852248559054871c419990600090a36001600160a01b0381166000908152601160205260408120805460ff191660011790556109bd610d4c565b90506109c933826111bd565b505061071a60018055565b6003546001600160a01b0316336001600160a01b031614610a0857604051637c2411e960e01b815260040160405180910390fd5b610a10611116565b600754421015610a3357604051632ea42c6f60e11b815260040160405180910390fd5b600a546008541015610a57576040516250b2a360e81b815260040160405180910390fd5b600f5460ff1615610a7b5760405163029c9c0560e61b815260040160405180910390fd5b6000610a856104bc565b600d549091506001600160a01b037f0000000000000000000000000000000000000000000000000000000000000000811691634899b9a8911683610ac63390565b60405160e085901b6001600160e01b03191681526001600160a01b03938416600482015260248101929092529091166044820152606401600060405180830381600087803b158015610b1757600080fd5b505af1158015610b2b573d6000803e3d6000fd5b5050600f805460ff191660011790555050600254610b463390565b6001600160a01b03167f2a21ff03a0e8112a6f7dd57a7a1e07b922c2cb6b55fb1f3ef2e7a0084eaa6dc283604051610b8091815260200190565b60405180910390a35061071a60018055565b600654421015610bb557604051632fb33b7b60e21b815260040160405180910390fd5b600754421115610bd85760405163ef9998dd60e01b815260040160405180910390fd5b3360008181526011602052604090205460ff16610c0857604051632ba75b2560e01b815260040160405180910390fd5b610c10611116565b336000610c1b610732565b90506000610c3e836001600160a01b031660009081526010602052604090205490565b90506000610c4c8683611603565b9050826101200151811015610c745760405163753f384d60e11b815260040160405180910390fd5b826101400151811115610c9a57604051631ba05a5760e31b815260040160405180910390fd5b82516040518781526001600160a01b038616907f9e9d071824fd57d062ca63fd8b786d8da48a6807eebbcb2d83f9e8d21398e28c9060200160405180910390a38060026006016000828254610cef9190611603565b90915550610cff905084876111bd565b50505050610d0c60018055565b5050565b336000908152601060205260408120546005548290610d316004600a61153e565b610d3b908461154a565b610d459190611561565b9392505050565b600b5460009061072d90600290611561565b6003546001600160a01b0316336001600160a01b031614610d9257604051637c2411e960e01b815260040160405180910390fd5b610d9a611116565b600754421015610dbd57604051632ea42c6f60e11b815260040160405180910390fd5b600a546008541015610de1576040516250b2a360e81b815260040160405180910390fd5b600f5460ff1615610e055760405163029c9c0560e61b815260040160405180910390fd5b6000610e0f6104bc565b600d549091506000906001600160a01b031663a9059cbb336040516001600160e01b031960e084901b1681526001600160a01b039091166004820152602481018590526044016020604051808303816000875af1158015610e74573d6000803e3d6000fd5b505050506040513d601f19601f82011682018060405250810190610e9891906115c8565b905080610eb857604051633c9fd93960e21b815260040160405180910390fd5b600f805460ff19166001179055600254610ecf3390565b6001600160a01b03167f2a21ff03a0e8112a6f7dd57a7a1e07b922c2cb6b55fb1f3ef2e7a0084eaa6dc284604051610f0991815260200190565b60405180910390a3505061071a60018055565b600754421015610f3f57604051632ea42c6f60e11b815260040160405180910390fd5b600a546008541015610f63576040516250b2a360e81b815260040160405180910390fd5b3360008181526011602052604090205460ff16610f9357604051632ba75b2560e01b815260040160405180910390fd5b610f9b611116565b336000610fa6610d10565b600e54909150600090610fb9908361154a565b90506000610fc78284611603565b6004805460405163a9059cbb60e01b81526001600160a01b03888116938201939093526024810184905292935060009291169063a9059cbb906044016020604051808303816000875af1158015611022573d6000803e3d6000fd5b505050506040513d601f19601f8201168201806040525081019061104691906115c8565b90508061106657604051633c9fd93960e21b815260040160405180910390fd5b6002546040518381526001600160a01b038716907ff3a670cd3af7d64b488926880889d08a8585a138ff455227af6737339a1ec2629060200160405180910390a3505050505061070560018055565b6110bd611140565b6001600160a01b0381166110ec57604051631e4fbdf760e01b8152600060048201526024015b60405180910390fd5b6107058161116d565b600080611100610843565b9050600061110c610503565b9091101592915050565b60026001540361113957604051633ee5aeb560e01b815260040160405180910390fd5b6002600155565b6000546001600160a01b0316331461071a5760405163118cdaa760e01b81523360048201526024016110e3565b600080546001600160a01b038381166001600160a01b0319831681178455604051919092169283917f8be0079c531659141344cd1fd0a4f28419497f9722a3daafe3b4186f6b6457e09190a35050565b60006111d1600d546001600160a01b031690565b604051636eb1769f60e11b81526001600160a01b03858116600483015230602483015291925060009183169063dd62ed3e90604401602060405180830381865afa158015611223573d6000803e3d6000fd5b505050506040513d601f19601f8201168201806040525081019061124791906115ea565b90508281101561126a5760405163bd0a4d7160e01b815260040160405180910390fd5b6001600160a01b03841660009081526010602052604081208054859290611292908490611603565b90915550506040516323b872dd60e01b81526001600160a01b03858116600483015230602483015260448201859052600091908416906323b872dd906064016020604051808303816000875af11580156112f0573d6000803e3d6000fd5b505050506040513d601f19601f8201168201806040525081019061131491906115c8565b90508061133457604051633c9fd93960e21b815260040160405180910390fd5b5050505050565b60006020828403121561134d57600080fd5b81356001600160a01b0381168114610d4557600080fd5b815181526020808301516101a0830191611388908401826001600160a01b03169052565b5060408301516113a360408401826001600160a01b03169052565b50606083015160608301526080830151608083015260a083015160a083015260c083015160c083015260e083015160e08301526101008301516101008301526101208301516101208301526101408301516101408301526101608301516114166101608401826001600160a01b03169052565b5061018092830151919092015290565b60006020828403121561143857600080fd5b5035919050565b634e487b7160e01b600052601160045260246000fd5b6001815b6001841115611490578085048111156114745761147461143f565b600184161561148257908102905b60019390931c928002611459565b935093915050565b6000826114a757506001611538565b816114b457506000611538565b81600181146114ca57600281146114d4576114f0565b6001915050611538565b60ff8411156114e5576114e561143f565b50506001821b611538565b5060208310610133831016604e8410600b8410161715611513575081810a611538565b6115206000198484611455565b80600019048211156115345761153461143f565b0290505b92915050565b6000610d458383611498565b80820281158282048414176115385761153861143f565b60008261157e57634e487b7160e01b600052601260045260246000fd5b500490565b818103818111156115385761153861143f565b6000602082840312156115a857600080fd5b815160ff81168114610d4557600080fd5b6000610d4560ff841683611498565b6000602082840312156115da57600080fd5b81518015158114610d4557600080fd5b6000602082840312156115fc57600080fd5b5051919050565b808201808211156115385761153861143f56fea2646970667358221220c7767a28d55ef9f2ea498faf4a9c7e609b77029c2297eacebff75d6f2e3d642564736f6c634300081c0033",
        "linkReferences": {}
    },
    "methodIdentifiers": {
        "IDO_FEE_RATE()": "b5697a1c",
        "RATE_DECIMALS()": "5a604c52",
        "getAcceptedVAsset()": "5eb5e2f4",
        "getAmountToTopUp()": "465a5044",
        "getPricePerToken()": "ca1e9738",
        "getProjectDetail()": "9dbf77c1",
        "getProjectEndTime()": "66c561f8",
        "getProjectFullDetails()": "95c09054",
        "getProjectHardCapAmount()": "0fd4a2a9",
        "getProjectMaxInvest()": "a96fd5d8",
        "getProjectMinInvest()": "5f791a15",
        "getProjectOwner()": "e6d68595",
        "getProjectRaisedAmount()": "b3017fd0",
        "getProjectSoftCapAmount()": "a9c51b70",
        "getProjectSoftCapReached()": "9953c210",
        "getProjectStartTime()": "f4390f02",
        "getProjectTokenAddress()": "7cbb7b46",
        "getProjectTokenToppedUpAmt()": "9efda4d7",
        "getProjectWithdrawState()": "f55bb36c",
        "getRedeemAmount()": "be9d323c",
        "getReserveInvestment()": "ccb9dc8b",
        "getTimeLeftUntilProjecctEnd()": "7e53614f",
        "getUserDepositAmount(address)": "0cec2a76",
        "getVAssetAddress()": "bfccc658",
        "getWithdrawAmount()": "027932f9",
        "investProject(uint256)": "b3a4faa2",
        "isProjectActive()": "4d900f63",
        "isProjectFullyToppedUp()": "f5e430c5",
        "isVAssetAcceptedByProject(address)": "e89b1fec",
        "isWhitelisted(address)": "3af32abf",
        "joinWhitelist()": "a9518e88",
        "owner()": "8da5cb5b",
        "redeemTokens()": "e9a9c50c",
        "refundToken()": "5cb732be",
        "renounceOwnership()": "715018a6",
        "slpxAddress()": "f728186d",
        "slpxContract()": "8531d731",
        "slpxWithdrawFund()": "acf8d7ab",
        "transferOwnership(address)": "f2fde38b",
        "withdrawFund()": "e07fa3c1",
        "withdrawed()": "9a797128"
    },
    "id": 0
}