{
  "abi": [
    {
      "type": "constructor",
      "inputs": [
        {
          "name": "projectOwner",
          "type": "address",
          "internalType": "address"
        },
        {
          "name": "tokenAddress",
          "type": "address",
          "internalType": "address"
        },
        {
          "name": "pricePerToken",
          "type": "uint256",
          "internalType": "uint256"
        },
        {
          "name": "startTime",
          "type": "uint256",
          "internalType": "uint256"
        },
        {
          "name": "endTime",
          "type": "uint256",
          "internalType": "uint256"
        },
        {
          "name": "minInvest",
          "type": "uint256",
          "internalType": "uint256"
        },
        {
          "name": "maxInvest",
          "type": "uint256",
          "internalType": "uint256"
        },
        {
          "name": "hardCapAmount",
          "type": "uint256",
          "internalType": "uint256"
        },
        {
          "name": "softCapAmount",
          "type": "uint256",
          "internalType": "uint256"
        },
        {
          "name": "rewardRate",
          "type": "uint256",
          "internalType": "uint256"
        },
        {
          "name": "acceptedVAsset",
          "type": "address",
          "internalType": "address"
        },
        {
          "name": "_slpxAddress",
          "type": "address",
          "internalType": "address"
        }
      ],
      "stateMutability": "nonpayable"
    },
    {
      "type": "function",
      "name": "IDO_FEE_RATE",
      "inputs": [],
      "outputs": [
        {
          "name": "",
          "type": "uint256",
          "internalType": "uint256"
        }
      ],
      "stateMutability": "view"
    },
    {
      "type": "function",
      "name": "RATE_DECIMALS",
      "inputs": [],
      "outputs": [
        {
          "name": "",
          "type": "uint256",
          "internalType": "uint256"
        }
      ],
      "stateMutability": "view"
    },
    {
      "type": "function",
      "name": "getAcceptedVAsset",
      "inputs": [],
      "outputs": [
        {
          "name": "",
          "type": "address",
          "internalType": "address"
        }
      ],
      "stateMutability": "view"
    },
    {
      "type": "function",
      "name": "getAmountToTopUp",
      "inputs": [],
      "outputs": [
        {
          "name": "",
          "type": "uint256",
          "internalType": "uint256"
        }
      ],
      "stateMutability": "view"
    },
    {
      "type": "function",
      "name": "getProjectDetail",
      "inputs": [],
      "outputs": [
        {
          "name": "",
          "type": "tuple",
          "internalType": "struct ProjectPool.ProjectDetail",
          "components": [
            {
              "name": "projectId",
              "type": "uint256",
              "internalType": "uint256"
            },
            {
              "name": "projectOwner",
              "type": "address",
              "internalType": "address"
            },
            {
              "name": "tokenAddress",
              "type": "address",
              "internalType": "address"
            },
            {
              "name": "pricePerToken",
              "type": "uint256",
              "internalType": "uint256"
            },
            {
              "name": "startTime",
              "type": "uint256",
              "internalType": "uint256"
            },
            {
              "name": "endTime",
              "type": "uint256",
              "internalType": "uint256"
            },
            {
              "name": "raisedAmount",
              "type": "uint256",
              "internalType": "uint256"
            },
            {
              "name": "hardCapAmount",
              "type": "uint256",
              "internalType": "uint256"
            },
            {
              "name": "softCapAmount",
              "type": "uint256",
              "internalType": "uint256"
            },
            {
              "name": "minInvest",
              "type": "uint256",
              "internalType": "uint256"
            },
            {
              "name": "maxInvest",
              "type": "uint256",
              "internalType": "uint256"
            },
            {
              "name": "acceptedVAsset",
              "type": "address",
              "internalType": "address"
            },
            {
              "name": "rewardRate",
              "type": "uint256",
              "internalType": "uint256"
            }
          ]
        }
      ],
      "stateMutability": "view"
    },
    {
      "type": "function",
      "name": "getProjectEndTime",
      "inputs": [],
      "outputs": [
        {
          "name": "",
          "type": "uint256",
          "internalType": "uint256"
        }
      ],
      "stateMutability": "view"
    },
    {
      "type": "function",
      "name": "getProjectFullDetails",
      "inputs": [],
      "outputs": [
        {
          "name": "",
          "type": "tuple",
          "internalType": "struct ProjectPool.ProjectDetail",
          "components": [
            {
              "name": "projectId",
              "type": "uint256",
              "internalType": "uint256"
            },
            {
              "name": "projectOwner",
              "type": "address",
              "internalType": "address"
            },
            {
              "name": "tokenAddress",
              "type": "address",
              "internalType": "address"
            },
            {
              "name": "pricePerToken",
              "type": "uint256",
              "internalType": "uint256"
            },
            {
              "name": "startTime",
              "type": "uint256",
              "internalType": "uint256"
            },
            {
              "name": "endTime",
              "type": "uint256",
              "internalType": "uint256"
            },
            {
              "name": "raisedAmount",
              "type": "uint256",
              "internalType": "uint256"
            },
            {
              "name": "hardCapAmount",
              "type": "uint256",
              "internalType": "uint256"
            },
            {
              "name": "softCapAmount",
              "type": "uint256",
              "internalType": "uint256"
            },
            {
              "name": "minInvest",
              "type": "uint256",
              "internalType": "uint256"
            },
            {
              "name": "maxInvest",
              "type": "uint256",
              "internalType": "uint256"
            },
            {
              "name": "acceptedVAsset",
              "type": "address",
              "internalType": "address"
            },
            {
              "name": "rewardRate",
              "type": "uint256",
              "internalType": "uint256"
            }
          ]
        }
      ],
      "stateMutability": "view"
    },
    {
      "type": "function",
      "name": "getProjectHardCapAmount",
      "inputs": [],
      "outputs": [
        {
          "name": "",
          "type": "uint256",
          "internalType": "uint256"
        }
      ],
      "stateMutability": "view"
    },
    {
      "type": "function",
      "name": "getProjectMaxInvest",
      "inputs": [],
      "outputs": [
        {
          "name": "",
          "type": "uint256",
          "internalType": "uint256"
        }
      ],
      "stateMutability": "view"
    },
    {
      "type": "function",
      "name": "getProjectMinInvest",
      "inputs": [],
      "outputs": [
        {
          "name": "",
          "type": "uint256",
          "internalType": "uint256"
        }
      ],
      "stateMutability": "view"
    },
    {
      "type": "function",
      "name": "getProjectOwner",
      "inputs": [],
      "outputs": [
        {
          "name": "",
          "type": "address",
          "internalType": "address"
        }
      ],
      "stateMutability": "view"
    },
    {
      "type": "function",
      "name": "getProjectRaisedAmount",
      "inputs": [],
      "outputs": [
        {
          "name": "",
          "type": "uint256",
          "internalType": "uint256"
        }
      ],
      "stateMutability": "view"
    },
    {
      "type": "function",
      "name": "getProjectSoftCapAmount",
      "inputs": [],
      "outputs": [
        {
          "name": "",
          "type": "uint256",
          "internalType": "uint256"
        }
      ],
      "stateMutability": "view"
    },
    {
      "type": "function",
      "name": "getProjectSoftCapReached",
      "inputs": [],
      "outputs": [
        {
          "name": "",
          "type": "bool",
          "internalType": "bool"
        }
      ],
      "stateMutability": "view"
    },
    {
      "type": "function",
      "name": "getProjectStartTime",
      "inputs": [],
      "outputs": [
        {
          "name": "",
          "type": "uint256",
          "internalType": "uint256"
        }
      ],
      "stateMutability": "view"
    },
    {
      "type": "function",
      "name": "getProjectTokenAddress",
      "inputs": [],
      "outputs": [
        {
          "name": "",
          "type": "address",
          "internalType": "address"
        }
      ],
      "stateMutability": "view"
    },
    {
      "type": "function",
      "name": "getProjectTokenToppedUpAmt",
      "inputs": [],
      "outputs": [
        {
          "name": "",
          "type": "uint256",
          "internalType": "uint256"
        }
      ],
      "stateMutability": "view"
    },
    {
      "type": "function",
      "name": "getRedeemAmount",
      "inputs": [],
      "outputs": [
        {
          "name": "",
          "type": "uint256",
          "internalType": "uint256"
        }
      ],
      "stateMutability": "view"
    },
    {
      "type": "function",
      "name": "getReserveInvestment",
      "inputs": [],
      "outputs": [
        {
          "name": "",
          "type": "uint256",
          "internalType": "uint256"
        }
      ],
      "stateMutability": "view"
    },
    {
      "type": "function",
      "name": "getTimeLeftUntilProjecctEnd",
      "inputs": [],
      "outputs": [
        {
          "name": "",
          "type": "uint256",
          "internalType": "uint256"
        }
      ],
      "stateMutability": "view"
    },
    {
      "type": "function",
      "name": "getUserDepositAmount",
      "inputs": [
        {
          "name": "_userAdr",
          "type": "address",
          "internalType": "address"
        }
      ],
      "outputs": [
        {
          "name": "",
          "type": "uint256",
          "internalType": "uint256"
        }
      ],
      "stateMutability": "view"
    },
    {
      "type": "function",
      "name": "getVAssetAddress",
      "inputs": [],
      "outputs": [
        {
          "name": "",
          "type": "address",
          "internalType": "address"
        }
      ],
      "stateMutability": "view"
    },
    {
      "type": "function",
      "name": "getWithdrawAmount",
      "inputs": [],
      "outputs": [
        {
          "name": "",
          "type": "uint256",
          "internalType": "uint256"
        }
      ],
      "stateMutability": "view"
    },
    {
      "type": "function",
      "name": "investProject",
      "inputs": [
        {
          "name": "amount",
          "type": "uint256",
          "internalType": "uint256"
        }
      ],
      "outputs": [],
      "stateMutability": "nonpayable"
    },
    {
      "type": "function",
      "name": "isProjectActive",
      "inputs": [],
      "outputs": [
        {
          "name": "",
          "type": "bool",
          "internalType": "bool"
        }
      ],
      "stateMutability": "view"
    },
    {
      "type": "function",
      "name": "isProjectFullyToppedUp",
      "inputs": [],
      "outputs": [
        {
          "name": "",
          "type": "bool",
          "internalType": "bool"
        }
      ],
      "stateMutability": "view"
    },
    {
      "type": "function",
      "name": "isVAssetAcceptedByProject",
      "inputs": [
        {
          "name": "vAssetAddress",
          "type": "address",
          "internalType": "address"
        }
      ],
      "outputs": [
        {
          "name": "",
          "type": "bool",
          "internalType": "bool"
        }
      ],
      "stateMutability": "view"
    },
    {
      "type": "function",
      "name": "isWhitelisted",
      "inputs": [
        {
          "name": "_address",
          "type": "address",
          "internalType": "address"
        }
      ],
      "outputs": [
        {
          "name": "",
          "type": "bool",
          "internalType": "bool"
        }
      ],
      "stateMutability": "view"
    },
    {
      "type": "function",
      "name": "joinWhitelist",
      "inputs": [],
      "outputs": [],
      "stateMutability": "nonpayable"
    },
    {
      "type": "function",
      "name": "owner",
      "inputs": [],
      "outputs": [
        {
          "name": "",
          "type": "address",
          "internalType": "address"
        }
      ],
      "stateMutability": "view"
    },
    {
      "type": "function",
      "name": "redeemTokens",
      "inputs": [],
      "outputs": [],
      "stateMutability": "nonpayable"
    },
    {
      "type": "function",
      "name": "refundToken",
      "inputs": [],
      "outputs": [],
      "stateMutability": "nonpayable"
    },
    {
      "type": "function",
      "name": "renounceOwnership",
      "inputs": [],
      "outputs": [],
      "stateMutability": "nonpayable"
    },
    {
      "type": "function",
      "name": "slpxAddress",
      "inputs": [],
      "outputs": [
        {
          "name": "",
          "type": "address",
          "internalType": "address"
        }
      ],
      "stateMutability": "view"
    },
    {
      "type": "function",
      "name": "transferOwnership",
      "inputs": [
        {
          "name": "newOwner",
          "type": "address",
          "internalType": "address"
        }
      ],
      "outputs": [],
      "stateMutability": "nonpayable"
    },
    {
      "type": "function",
      "name": "withdrawFund",
      "inputs": [],
      "outputs": [],
      "stateMutability": "nonpayable"
    },
    {
      "type": "event",
      "name": "Invested",
      "inputs": [
        {
          "name": "user",
          "type": "address",
          "indexed": true,
          "internalType": "address"
        },
        {
          "name": "projectId",
          "type": "uint256",
          "indexed": true,
          "internalType": "uint256"
        },
        {
          "name": "amount",
          "type": "uint256",
          "indexed": false,
          "internalType": "uint256"
        }
      ],
      "anonymous": false
    },
    {
      "type": "event",
      "name": "OwnershipTransferred",
      "inputs": [
        {
          "name": "previousOwner",
          "type": "address",
          "indexed": true,
          "internalType": "address"
        },
        {
          "name": "newOwner",
          "type": "address",
          "indexed": true,
          "internalType": "address"
        }
      ],
      "anonymous": false
    },
    {
      "type": "event",
      "name": "ProjectCreated",
      "inputs": [
        {
          "name": "projectOwner",
          "type": "address",
          "indexed": true,
          "internalType": "address"
        },
        {
          "name": "tokenAddress",
          "type": "address",
          "indexed": true,
          "internalType": "address"
        },
        {
          "name": "projectId",
          "type": "uint256",
          "indexed": false,
          "internalType": "uint256"
        },
        {
          "name": "pricePerToken",
          "type": "uint256",
          "indexed": false,
          "internalType": "uint256"
        },
        {
          "name": "startTime",
          "type": "uint256",
          "indexed": false,
          "internalType": "uint256"
        },
        {
          "name": "endTime",
          "type": "uint256",
          "indexed": false,
          "internalType": "uint256"
        }
      ],
      "anonymous": false
    },
    {
      "type": "event",
      "name": "ProjectWithdrawn",
      "inputs": [
        {
          "name": "user",
          "type": "address",
          "indexed": true,
          "internalType": "address"
        },
        {
          "name": "projectId",
          "type": "uint256",
          "indexed": true,
          "internalType": "uint256"
        },
        {
          "name": "amount",
          "type": "uint256",
          "indexed": false,
          "internalType": "uint256"
        }
      ],
      "anonymous": false
    },
    {
      "type": "event",
      "name": "Redeemed",
      "inputs": [
        {
          "name": "user",
          "type": "address",
          "indexed": true,
          "internalType": "address"
        },
        {
          "name": "projectId",
          "type": "uint256",
          "indexed": true,
          "internalType": "uint256"
        },
        {
          "name": "amount",
          "type": "uint256",
          "indexed": false,
          "internalType": "uint256"
        }
      ],
      "anonymous": false
    },
    {
      "type": "event",
      "name": "Whitelisted",
      "inputs": [
        {
          "name": "user",
          "type": "address",
          "indexed": true,
          "internalType": "address"
        },
        {
          "name": "projectId",
          "type": "uint256",
          "indexed": true,
          "internalType": "uint256"
        }
      ],
      "anonymous": false
    },
    {
      "type": "error",
      "name": "AlreadyWhitelisted",
      "inputs": []
    },
    {
      "type": "error",
      "name": "ERC20TransferFailed",
      "inputs": []
    },
    {
      "type": "error",
      "name": "HardCapExceeded",
      "inputs": []
    },
    {
      "type": "error",
      "name": "InvalidProjectHardCap",
      "inputs": []
    },
    {
      "type": "error",
      "name": "InvalidProjectId",
      "inputs": []
    },
    {
      "type": "error",
      "name": "InvalidProjectMaxInvestment",
      "inputs": []
    },
    {
      "type": "error",
      "name": "InvalidProjectMinInvestment",
      "inputs": []
    },
    {
      "type": "error",
      "name": "InvalidProjectSoftCap",
      "inputs": []
    },
    {
      "type": "error",
      "name": "InvalidProjectTimeframe",
      "inputs": []
    },
    {
      "type": "error",
      "name": "MaxInvestmentExceeded",
      "inputs": []
    },
    {
      "type": "error",
      "name": "MinInvestmentNotReached",
      "inputs": []
    },
    {
      "type": "error",
      "name": "NotEnoughERC20Allowance",
      "inputs": []
    },
    {
      "type": "error",
      "name": "NotProjectOwner",
      "inputs": []
    },
    {
      "type": "error",
      "name": "OwnableInvalidOwner",
      "inputs": [
        {
          "name": "owner",
          "type": "address",
          "internalType": "address"
        }
      ]
    },
    {
      "type": "error",
      "name": "OwnableUnauthorizedAccount",
      "inputs": [
        {
          "name": "account",
          "type": "address",
          "internalType": "address"
        }
      ]
    },
    {
      "type": "error",
      "name": "ProjectIDOHasEnded",
      "inputs": []
    },
    {
      "type": "error",
      "name": "ProjectIDOHasNotStarted",
      "inputs": []
    },
    {
      "type": "error",
      "name": "ProjectStillActive",
      "inputs": []
    },
    {
      "type": "error",
      "name": "ReentrancyGuardReentrantCall",
      "inputs": []
    },
    {
      "type": "error",
      "name": "SoftCapNotReach",
      "inputs": []
    },
    {
      "type": "error",
      "name": "TokenForSaleMustBePositive",
      "inputs": []
    },
    {
      "type": "error",
      "name": "TokenPriceMustBePositive",
      "inputs": []
    },
    {
      "type": "error",
      "name": "UserNotWhitelisted",
      "inputs": []
    },
    {
      "type": "error",
      "name": "ZeroAddress",
      "inputs": []
    }
  ],
  "bytecode": {
    "object": "0x60a06040523480156200001157600080fd5b50604051620016e2380380620016e2833981016040819052620000349162000259565b8b6001600160a01b0381166200006457604051631e4fbdf760e01b81526000600482015260240160405180910390fd5b6200006f81620001ec565b50600180558b6001600160a01b0381166200009d5760405163d92e233d60e01b815260040160405180910390fd5b851580620000ab5750848611155b15620000ca57604051636cbdb61f60e01b815260040160405180910390fd5b60008511620000ec57604051635046b82960e11b815260040160405180910390fd5b861580620000f957508587115b806200010457508787105b1562000123576040516301c9409d60e31b815260040160405180910390fd5b600088116200014557604051630c8b846560e41b815260040160405180910390fd5b428a1080620001535750888a115b1562000172576040516353de4ffb60e11b815260040160405180910390fd5b50600380546001600160a01b03199081166001600160a01b039e8f16179091556004805482169c8e169c909c17909b556005999099556006979097556007959095556000600855600b93909355600c91909155600955600a55600d805490941691851691909117909255600e919091551660805262000306565b600080546001600160a01b038381166001600160a01b0319831681178455604051919092169283917f8be0079c531659141344cd1fd0a4f28419497f9722a3daafe3b4186f6b6457e09190a35050565b80516001600160a01b03811681146200025457600080fd5b919050565b6000806000806000806000806000806000806101808d8f0312156200027d57600080fd5b620002888d6200023c565b9b506200029860208e016200023c565b9a5060408d0151995060608d0151985060808d0151975060a08d0151965060c08d0151955060e08d015194506101008d015193506101208d01519250620002e36101408e016200023c565b9150620002f46101608e016200023c565b90509295989b509295989b509295989b565b6080516113c062000322600039600061041401526113c06000f3fe608060405234801561001057600080fd5b506004361061021c5760003560e01c80639efda4d711610125578063ccb9dc8b116100ad578063e9a9c50c1161007c578063e9a9c50c146103e4578063f2fde38b146103ec578063f4390f02146103ff578063f5e430c514610407578063f728186d1461040f57600080fd5b8063ccb9dc8b146103a1578063e07fa3c1146103a9578063e6d68595146103b1578063e89b1fec146103c257600080fd5b8063b3017fd0116100f4578063b3017fd014610376578063b3a4faa21461037e578063b5697a1c14610391578063be9d323c14610399578063bfccc658146102cd57600080fd5b80639efda4d714610356578063a9518e881461035e578063a96fd5d814610366578063a9c51b701461036e57600080fd5b80635f791a15116101a85780637e53614f116101775780637e53614f1461031b5780638da5cb5b1461032357806395c09054146103345780639953c210146103495780639dbf77c11461033457600080fd5b80635f791a15146102f257806366c561f8146102fa578063715018a6146103025780637cbb7b461461030a57600080fd5b8063465a5044116101ef578063465a5044146102a95780634d900f63146102b15780635a604c52146102bb5780635cb732be146102c35780635eb5e2f4146102cd57600080fd5b8063027932f9146102215780630cec2a761461023c5780630fd4a2a9146102655780633af32abf1461026d575b600080fd5b610229610436565b6040519081526020015b60405180910390f35b61022961024a3660046110b2565b6001600160a01b03166000908152600f602052604090205490565b600954610229565b61029961027b3660046110b2565b6001600160a01b031660009081526010602052604090205460ff1690565b6040519015158152602001610233565b61022961047d565b6007544211610299565b610229600481565b6102cb610528565b005b600d546001600160a01b03165b6040516001600160a01b039091168152602001610233565b600b54610229565b600754610229565b6102cb610682565b6004546001600160a01b03166102da565b610229610696565b6000546001600160a01b03166102da565b61033c6106ac565b60405161023391906110db565b600a546008541015610299565b6102296107bd565b6102cb61083b565b600c54610229565b600a54610229565b600854610229565b6102cb61038c36600461119d565b61094e565b610229603281565b610229610acc565b610229610b08565b6102cb610b1a565b6003546001600160a01b03166102da565b6102996103d03660046110b2565b600d546001600160a01b0391821691161490565b6102cb610c93565b6102cb6103fa3660046110b2565b610e2c565b600654610229565b610299610e6c565b6102da7f000000000000000000000000000000000000000000000000000000000000000081565b60008061044260085490565b905060006104526004600a6112b2565b61045d6032846112be565b61046791906112d5565b9050600061047582846112f7565b949350505050565b60008061048960095490565b9050600061049f6004546001600160a01b031690565b6001600160a01b031663313ce5676040518163ffffffff1660e01b8152600401602060405180830381865afa1580156104dc573d6000803e3d6000fd5b505050506040513d601f19601f82011682018060405250810190610500919061130a565b60055490915060009061051483600a61132d565b61051e90856112be565b61047591906112d5565b60075442101561054b57604051632ea42c6f60e11b815260040160405180910390fd5b3360008181526010602052604090205460ff1661057b57604051632ba75b2560e01b815260040160405180910390fd5b610583610e8d565b6000336001600160a01b038181166000818152600f602052604080822054600d54915163a9059cbb60e01b81526004810194909452602484018190529495509092169063a9059cbb906044016020604051808303816000875af11580156105ee573d6000803e3d6000fd5b505050506040513d601f19601f82011682018060405250810190610612919061133c565b90508061063257604051633c9fd93960e21b815260040160405180910390fd5b6002546040518381526001600160a01b038516907ff3a670cd3af7d64b488926880889d08a8585a138ff455227af6737339a1ec2629060200160405180910390a350505061067f60018055565b50565b61068a610eb7565b6106946000610ee4565b565b6007546000906106a79042906112f7565b905090565b610732604051806101a001604052806000815260200160006001600160a01b0316815260200160006001600160a01b03168152602001600081526020016000815260200160008152602001600081526020016000815260200160008152602001600081526020016000815260200160006001600160a01b03168152602001600081525090565b50604080516101a08101825260025481526003546001600160a01b0390811660208301526004548116928201929092526005546060820152600654608082015260075460a082015260085460c082015260095460e0820152600a54610100820152600b54610120820152600c54610140820152600d54909116610160820152600e5461018082015290565b60006107d16004546001600160a01b031690565b6040516370a0823160e01b81523060048201526001600160a01b0391909116906370a0823190602401602060405180830381865afa158015610817573d6000803e3d6000fd5b505050506040513d601f19601f820116820180604052508101906106a7919061135e565b60065442101561085e57604051632fb33b7b60e21b815260040160405180910390fd5b6007544211156108815760405163ef9998dd60e01b815260040160405180910390fd5b610889610e8d565b3360008181526010602052604090205460ff16156108ba5760405163b73e95e160e01b815260040160405180910390fd5b600954600854106108de57604051631c4af3c960e11b815260040160405180910390fd5b60025460405133907f6ea640312e182de387819fbeb13be00db3171a445412852248559054871c419990600090a36001600160a01b0381166000908152601060205260408120805460ff19166001179055610937610b08565b90506109433382610f34565b505061069460018055565b60065442101561097157604051632fb33b7b60e21b815260040160405180910390fd5b6007544211156109945760405163ef9998dd60e01b815260040160405180910390fd5b3360008181526010602052604090205460ff166109c457604051632ba75b2560e01b815260040160405180910390fd5b6109cc610e8d565b3360006109d76106ac565b905060006109fa836001600160a01b03166000908152600f602052604090205490565b90506000610a088683611377565b9050826101200151811015610a305760405163753f384d60e11b815260040160405180910390fd5b826101400151811115610a5657604051631ba05a5760e31b815260040160405180910390fd5b82516040518781526001600160a01b038616907f9e9d071824fd57d062ca63fd8b786d8da48a6807eebbcb2d83f9e8d21398e28c9060200160405180910390a38060026006016000828254610aab9190611377565b90915550610abb90508487610f34565b50505050610ac860018055565b5050565b336000908152600f60205260408120546005548290610aed6004600a6112b2565b610af790846112be565b610b0191906112d5565b9392505050565b600b546000906106a7906002906112d5565b6003546001600160a01b0316336001600160a01b031614610b4e57604051637c2411e960e01b815260040160405180910390fd5b610b56610e8d565b600754421015610b7957604051632ea42c6f60e11b815260040160405180910390fd5b600a546008541015610b9d576040516250b2a360e81b815260040160405180910390fd5b6000610ba7610436565b600d549091506000906001600160a01b031663a9059cbb336040516001600160e01b031960e084901b1681526001600160a01b039091166004820152602481018590526044016020604051808303816000875af1158015610c0c573d6000803e3d6000fd5b505050506040513d601f19601f82011682018060405250810190610c30919061133c565b905080610c5057604051633c9fd93960e21b815260040160405180910390fd5b60025460405183815233907f2a21ff03a0e8112a6f7dd57a7a1e07b922c2cb6b55fb1f3ef2e7a0084eaa6dc29060200160405180910390a3505061069460018055565b600754421015610cb657604051632ea42c6f60e11b815260040160405180910390fd5b600a546008541015610cda576040516250b2a360e81b815260040160405180910390fd5b3360008181526010602052604090205460ff16610d0a57604051632ba75b2560e01b815260040160405180910390fd5b610d12610e8d565b336000610d1d610acc565b600e54909150600090610d3090836112be565b90506000610d3e8284611377565b6004805460405163a9059cbb60e01b81526001600160a01b03888116938201939093526024810184905292935060009291169063a9059cbb906044016020604051808303816000875af1158015610d99573d6000803e3d6000fd5b505050506040513d601f19601f82011682018060405250810190610dbd919061133c565b905080610ddd57604051633c9fd93960e21b815260040160405180910390fd5b6002546040518381526001600160a01b038716907ff3a670cd3af7d64b488926880889d08a8585a138ff455227af6737339a1ec2629060200160405180910390a3505050505061067f60018055565b610e34610eb7565b6001600160a01b038116610e6357604051631e4fbdf760e01b8152600060048201526024015b60405180910390fd5b61067f81610ee4565b600080610e776107bd565b90506000610e8361047d565b9091101592915050565b600260015403610eb057604051633ee5aeb560e01b815260040160405180910390fd5b6002600155565b6000546001600160a01b031633146106945760405163118cdaa760e01b8152336004820152602401610e5a565b600080546001600160a01b038381166001600160a01b0319831681178455604051919092169283917f8be0079c531659141344cd1fd0a4f28419497f9722a3daafe3b4186f6b6457e09190a35050565b6000610f48600d546001600160a01b031690565b604051636eb1769f60e11b81526001600160a01b03858116600483015230602483015291925060009183169063dd62ed3e90604401602060405180830381865afa158015610f9a573d6000803e3d6000fd5b505050506040513d601f19601f82011682018060405250810190610fbe919061135e565b905082811015610fe15760405163bd0a4d7160e01b815260040160405180910390fd5b6001600160a01b0384166000908152600f602052604081208054859290611009908490611377565b90915550506040516323b872dd60e01b81526001600160a01b03858116600483015230602483015260448201859052600091908416906323b872dd906064016020604051808303816000875af1158015611067573d6000803e3d6000fd5b505050506040513d601f19601f8201168201806040525081019061108b919061133c565b9050806110ab57604051633c9fd93960e21b815260040160405180910390fd5b5050505050565b6000602082840312156110c457600080fd5b81356001600160a01b0381168114610b0157600080fd5b815181526020808301516101a08301916110ff908401826001600160a01b03169052565b50604083015161111a60408401826001600160a01b03169052565b50606083015160608301526080830151608083015260a083015160a083015260c083015160c083015260e083015160e08301526101008084015181840152506101208084015181840152506101408084015181840152506101608084015161118c828501826001600160a01b03169052565b505061018092830151919092015290565b6000602082840312156111af57600080fd5b5035919050565b634e487b7160e01b600052601160045260246000fd5b600181815b808511156112075781600019048211156111ed576111ed6111b6565b808516156111fa57918102915b93841c93908002906111d1565b509250929050565b60008261121e575060016112ac565b8161122b575060006112ac565b8160018114611241576002811461124b57611267565b60019150506112ac565b60ff84111561125c5761125c6111b6565b50506001821b6112ac565b5060208310610133831016604e8410600b841016171561128a575081810a6112ac565b61129483836111cc565b80600019048211156112a8576112a86111b6565b0290505b92915050565b6000610b01838361120f565b80820281158282048414176112ac576112ac6111b6565b6000826112f257634e487b7160e01b600052601260045260246000fd5b500490565b818103818111156112ac576112ac6111b6565b60006020828403121561131c57600080fd5b815160ff81168114610b0157600080fd5b6000610b0160ff84168361120f565b60006020828403121561134e57600080fd5b81518015158114610b0157600080fd5b60006020828403121561137057600080fd5b5051919050565b808201808211156112ac576112ac6111b656fea2646970667358221220d03a5259417621359e0a6118459c88a44586301ff91392d44816d6cca7b5581964736f6c63430008180033",
    "linkReferences": {}
  },
  "methodIdentifiers": {
    "IDO_FEE_RATE()": "b5697a1c",
    "RATE_DECIMALS()": "5a604c52",
    "getAcceptedVAsset()": "5eb5e2f4",
    "getAmountToTopUp()": "465a5044",
    "getProjectDetail()": "9dbf77c1",
    "getProjectEndTime()": "66c561f8",
    "getProjectFullDetails()": "95c09054",
    "getProjectHardCapAmount()": "0fd4a2a9",
    "getProjectMaxInvest()": "a96fd5d8",
    "getProjectMinInvest()": "5f791a15",
    "getProjectOwner()": "e6d68595",
    "getProjectRaisedAmount()": "b3017fd0",
    "getProjectSoftCapAmount()": "a9c51b70",
    "getProjectSoftCapReached()": "9953c210",
    "getProjectStartTime()": "f4390f02",
    "getProjectTokenAddress()": "7cbb7b46",
    "getProjectTokenToppedUpAmt()": "9efda4d7",
    "getRedeemAmount()": "be9d323c",
    "getReserveInvestment()": "ccb9dc8b",
    "getTimeLeftUntilProjecctEnd()": "7e53614f",
    "getUserDepositAmount(address)": "0cec2a76",
    "getVAssetAddress()": "bfccc658",
    "getWithdrawAmount()": "027932f9",
    "investProject(uint256)": "b3a4faa2",
    "isProjectActive()": "4d900f63",
    "isProjectFullyToppedUp()": "f5e430c5",
    "isVAssetAcceptedByProject(address)": "e89b1fec",
    "isWhitelisted(address)": "3af32abf",
    "joinWhitelist()": "a9518e88",
    "owner()": "8da5cb5b",
    "redeemTokens()": "e9a9c50c",
    "refundToken()": "5cb732be",
    "renounceOwnership()": "715018a6",
    "slpxAddress()": "f728186d",
    "transferOwnership(address)": "f2fde38b",
    "withdrawFund()": "e07fa3c1"
  },
  "id": 0
}