{
  "abi": [
    {
      "type": "constructor",
      "inputs": [
        {
          "name": "projectOwner",
          "type": "address",
          "internalType": "address"
        },
        {
          "name": "tokenAddress",
          "type": "address",
          "internalType": "address"
        },
        {
          "name": "pricePerToken",
          "type": "uint256",
          "internalType": "uint256"
        },
        {
          "name": "startTime",
          "type": "uint256",
          "internalType": "uint256"
        },
        {
          "name": "endTime",
          "type": "uint256",
          "internalType": "uint256"
        },
        {
          "name": "minInvest",
          "type": "uint256",
          "internalType": "uint256"
        },
        {
          "name": "maxInvest",
          "type": "uint256",
          "internalType": "uint256"
        },
        {
          "name": "hardCapAmount",
          "type": "uint256",
          "internalType": "uint256"
        },
        {
          "name": "softCapAmount",
          "type": "uint256",
          "internalType": "uint256"
        },
        {
          "name": "rewardRate",
          "type": "uint256",
          "internalType": "uint256"
        },
        {
          "name": "acceptedVAsset",
          "type": "address",
          "internalType": "address"
        },
        {
          "name": "_slpxAddress",
          "type": "address",
          "internalType": "address"
        }
      ],
      "stateMutability": "nonpayable"
    },
    {
      "type": "function",
      "name": "IDO_FEE_RATE",
      "inputs": [],
      "outputs": [
        {
          "name": "",
          "type": "uint256",
          "internalType": "uint256"
        }
      ],
      "stateMutability": "view"
    },
    {
      "type": "function",
      "name": "RATE_DECIMALS",
      "inputs": [],
      "outputs": [
        {
          "name": "",
          "type": "uint256",
          "internalType": "uint256"
        }
      ],
      "stateMutability": "view"
    },
    {
      "type": "function",
      "name": "getAcceptedVAsset",
      "inputs": [],
      "outputs": [
        {
          "name": "",
          "type": "address",
          "internalType": "address"
        }
      ],
      "stateMutability": "view"
    },
    {
      "type": "function",
      "name": "getProjectDetail",
      "inputs": [],
      "outputs": [
        {
          "name": "",
          "type": "tuple",
          "internalType": "struct ProjectPool.ProjectDetail",
          "components": [
            {
              "name": "projectId",
              "type": "uint256",
              "internalType": "uint256"
            },
            {
              "name": "projectOwner",
              "type": "address",
              "internalType": "address"
            },
            {
              "name": "tokenAddress",
              "type": "address",
              "internalType": "address"
            },
            {
              "name": "pricePerToken",
              "type": "uint256",
              "internalType": "uint256"
            },
            {
              "name": "startTime",
              "type": "uint256",
              "internalType": "uint256"
            },
            {
              "name": "endTime",
              "type": "uint256",
              "internalType": "uint256"
            },
            {
              "name": "raisedAmount",
              "type": "uint256",
              "internalType": "uint256"
            },
            {
              "name": "hardCapAmount",
              "type": "uint256",
              "internalType": "uint256"
            },
            {
              "name": "softCapAmount",
              "type": "uint256",
              "internalType": "uint256"
            },
            {
              "name": "minInvest",
              "type": "uint256",
              "internalType": "uint256"
            },
            {
              "name": "maxInvest",
              "type": "uint256",
              "internalType": "uint256"
            },
            {
              "name": "acceptedVAsset",
              "type": "address",
              "internalType": "address"
            },
            {
              "name": "rewardRate",
              "type": "uint256",
              "internalType": "uint256"
            }
          ]
        }
      ],
      "stateMutability": "view"
    },
    {
      "type": "function",
      "name": "getProjectEndTime",
      "inputs": [],
      "outputs": [
        {
          "name": "",
          "type": "uint256",
          "internalType": "uint256"
        }
      ],
      "stateMutability": "view"
    },
    {
      "type": "function",
      "name": "getProjectFullDetails",
      "inputs": [],
      "outputs": [
        {
          "name": "",
          "type": "tuple",
          "internalType": "struct ProjectPool.ProjectDetail",
          "components": [
            {
              "name": "projectId",
              "type": "uint256",
              "internalType": "uint256"
            },
            {
              "name": "projectOwner",
              "type": "address",
              "internalType": "address"
            },
            {
              "name": "tokenAddress",
              "type": "address",
              "internalType": "address"
            },
            {
              "name": "pricePerToken",
              "type": "uint256",
              "internalType": "uint256"
            },
            {
              "name": "startTime",
              "type": "uint256",
              "internalType": "uint256"
            },
            {
              "name": "endTime",
              "type": "uint256",
              "internalType": "uint256"
            },
            {
              "name": "raisedAmount",
              "type": "uint256",
              "internalType": "uint256"
            },
            {
              "name": "hardCapAmount",
              "type": "uint256",
              "internalType": "uint256"
            },
            {
              "name": "softCapAmount",
              "type": "uint256",
              "internalType": "uint256"
            },
            {
              "name": "minInvest",
              "type": "uint256",
              "internalType": "uint256"
            },
            {
              "name": "maxInvest",
              "type": "uint256",
              "internalType": "uint256"
            },
            {
              "name": "acceptedVAsset",
              "type": "address",
              "internalType": "address"
            },
            {
              "name": "rewardRate",
              "type": "uint256",
              "internalType": "uint256"
            }
          ]
        }
      ],
      "stateMutability": "view"
    },
    {
      "type": "function",
      "name": "getProjectHardCapAmount",
      "inputs": [],
      "outputs": [
        {
          "name": "",
          "type": "uint256",
          "internalType": "uint256"
        }
      ],
      "stateMutability": "view"
    },
    {
      "type": "function",
      "name": "getProjectMaxInvest",
      "inputs": [],
      "outputs": [
        {
          "name": "",
          "type": "uint256",
          "internalType": "uint256"
        }
      ],
      "stateMutability": "view"
    },
    {
      "type": "function",
      "name": "getProjectMinInvest",
      "inputs": [],
      "outputs": [
        {
          "name": "",
          "type": "uint256",
          "internalType": "uint256"
        }
      ],
      "stateMutability": "view"
    },
    {
      "type": "function",
      "name": "getProjectOwner",
      "inputs": [],
      "outputs": [
        {
          "name": "",
          "type": "address",
          "internalType": "address"
        }
      ],
      "stateMutability": "view"
    },
    {
      "type": "function",
      "name": "getProjectRaisedAmount",
      "inputs": [],
      "outputs": [
        {
          "name": "",
          "type": "uint256",
          "internalType": "uint256"
        }
      ],
      "stateMutability": "view"
    },
    {
      "type": "function",
      "name": "getProjectSoftCapAmount",
      "inputs": [],
      "outputs": [
        {
          "name": "",
          "type": "uint256",
          "internalType": "uint256"
        }
      ],
      "stateMutability": "view"
    },
    {
      "type": "function",
      "name": "getProjectSoftCapReached",
      "inputs": [],
      "outputs": [
        {
          "name": "",
          "type": "bool",
          "internalType": "bool"
        }
      ],
      "stateMutability": "view"
    },
    {
      "type": "function",
      "name": "getProjectStartTime",
      "inputs": [],
      "outputs": [
        {
          "name": "",
          "type": "uint256",
          "internalType": "uint256"
        }
      ],
      "stateMutability": "view"
    },
    {
      "type": "function",
      "name": "getReserveInvestment",
      "inputs": [],
      "outputs": [
        {
          "name": "",
          "type": "uint256",
          "internalType": "uint256"
        }
      ],
      "stateMutability": "view"
    },
    {
      "type": "function",
      "name": "getTimeLeftUntilProjecctEnd",
      "inputs": [],
      "outputs": [
        {
          "name": "",
          "type": "uint256",
          "internalType": "uint256"
        }
      ],
      "stateMutability": "view"
    },
    {
      "type": "function",
      "name": "getUserDepositAmount",
      "inputs": [
        {
          "name": "_userAdr",
          "type": "address",
          "internalType": "address"
        }
      ],
      "outputs": [
        {
          "name": "",
          "type": "uint256",
          "internalType": "uint256"
        }
      ],
      "stateMutability": "view"
    },
    {
      "type": "function",
      "name": "getWithdrawAmount",
      "inputs": [],
      "outputs": [
        {
          "name": "",
          "type": "uint256",
          "internalType": "uint256"
        }
      ],
      "stateMutability": "view"
    },
    {
      "type": "function",
      "name": "investProject",
      "inputs": [
        {
          "name": "amount",
          "type": "uint256",
          "internalType": "uint256"
        }
      ],
      "outputs": [],
      "stateMutability": "nonpayable"
    },
    {
      "type": "function",
      "name": "isProjectActive",
      "inputs": [],
      "outputs": [
        {
          "name": "",
          "type": "bool",
          "internalType": "bool"
        }
      ],
      "stateMutability": "view"
    },
    {
      "type": "function",
      "name": "isVAssetAcceptedByProject",
      "inputs": [
        {
          "name": "vAssetAddress",
          "type": "address",
          "internalType": "address"
        }
      ],
      "outputs": [
        {
          "name": "",
          "type": "bool",
          "internalType": "bool"
        }
      ],
      "stateMutability": "view"
    },
    {
      "type": "function",
      "name": "isWhitelisted",
      "inputs": [
        {
          "name": "_address",
          "type": "address",
          "internalType": "address"
        }
      ],
      "outputs": [
        {
          "name": "",
          "type": "bool",
          "internalType": "bool"
        }
      ],
      "stateMutability": "view"
    },
    {
      "type": "function",
      "name": "joinWhitelist",
      "inputs": [],
      "outputs": [],
      "stateMutability": "nonpayable"
    },
    {
      "type": "function",
      "name": "owner",
      "inputs": [],
      "outputs": [
        {
          "name": "",
          "type": "address",
          "internalType": "address"
        }
      ],
      "stateMutability": "view"
    },
    {
      "type": "function",
      "name": "redeemTokens",
      "inputs": [],
      "outputs": [],
      "stateMutability": "nonpayable"
    },
    {
      "type": "function",
      "name": "refundToken",
      "inputs": [],
      "outputs": [],
      "stateMutability": "nonpayable"
    },
    {
      "type": "function",
      "name": "renounceOwnership",
      "inputs": [],
      "outputs": [],
      "stateMutability": "nonpayable"
    },
    {
      "type": "function",
      "name": "slpxAddress",
      "inputs": [],
      "outputs": [
        {
          "name": "",
          "type": "address",
          "internalType": "address"
        }
      ],
      "stateMutability": "view"
    },
    {
      "type": "function",
      "name": "transferOwnership",
      "inputs": [
        {
          "name": "newOwner",
          "type": "address",
          "internalType": "address"
        }
      ],
      "outputs": [],
      "stateMutability": "nonpayable"
    },
    {
      "type": "function",
      "name": "withdrawFund",
      "inputs": [],
      "outputs": [],
      "stateMutability": "nonpayable"
    },
    {
      "type": "event",
      "name": "Invested",
      "inputs": [
        {
          "name": "user",
          "type": "address",
          "indexed": true,
          "internalType": "address"
        },
        {
          "name": "projectId",
          "type": "uint256",
          "indexed": true,
          "internalType": "uint256"
        },
        {
          "name": "amount",
          "type": "uint256",
          "indexed": false,
          "internalType": "uint256"
        }
      ],
      "anonymous": false
    },
    {
      "type": "event",
      "name": "OwnershipTransferred",
      "inputs": [
        {
          "name": "previousOwner",
          "type": "address",
          "indexed": true,
          "internalType": "address"
        },
        {
          "name": "newOwner",
          "type": "address",
          "indexed": true,
          "internalType": "address"
        }
      ],
      "anonymous": false
    },
    {
      "type": "event",
      "name": "ProjectCreated",
      "inputs": [
        {
          "name": "projectOwner",
          "type": "address",
          "indexed": true,
          "internalType": "address"
        },
        {
          "name": "tokenAddress",
          "type": "address",
          "indexed": true,
          "internalType": "address"
        },
        {
          "name": "projectId",
          "type": "uint256",
          "indexed": false,
          "internalType": "uint256"
        },
        {
          "name": "pricePerToken",
          "type": "uint256",
          "indexed": false,
          "internalType": "uint256"
        },
        {
          "name": "startTime",
          "type": "uint256",
          "indexed": false,
          "internalType": "uint256"
        },
        {
          "name": "endTime",
          "type": "uint256",
          "indexed": false,
          "internalType": "uint256"
        }
      ],
      "anonymous": false
    },
    {
      "type": "event",
      "name": "ProjectWithdrawn",
      "inputs": [
        {
          "name": "user",
          "type": "address",
          "indexed": true,
          "internalType": "address"
        },
        {
          "name": "projectId",
          "type": "uint256",
          "indexed": true,
          "internalType": "uint256"
        },
        {
          "name": "amount",
          "type": "uint256",
          "indexed": false,
          "internalType": "uint256"
        }
      ],
      "anonymous": false
    },
    {
      "type": "event",
      "name": "Redeemed",
      "inputs": [
        {
          "name": "user",
          "type": "address",
          "indexed": true,
          "internalType": "address"
        },
        {
          "name": "projectId",
          "type": "uint256",
          "indexed": true,
          "internalType": "uint256"
        },
        {
          "name": "amount",
          "type": "uint256",
          "indexed": false,
          "internalType": "uint256"
        }
      ],
      "anonymous": false
    },
    {
      "type": "event",
      "name": "Whitelisted",
      "inputs": [
        {
          "name": "user",
          "type": "address",
          "indexed": true,
          "internalType": "address"
        },
        {
          "name": "projectId",
          "type": "uint256",
          "indexed": true,
          "internalType": "uint256"
        }
      ],
      "anonymous": false
    },
    {
      "type": "error",
      "name": "AlreadyWhitelisted",
      "inputs": []
    },
    {
      "type": "error",
      "name": "ERC20TransferFailed",
      "inputs": []
    },
    {
      "type": "error",
      "name": "HardCapExceeded",
      "inputs": []
    },
    {
      "type": "error",
      "name": "InvalidProjectHardCap",
      "inputs": []
    },
    {
      "type": "error",
      "name": "InvalidProjectId",
      "inputs": []
    },
    {
      "type": "error",
      "name": "InvalidProjectMaxInvestment",
      "inputs": []
    },
    {
      "type": "error",
      "name": "InvalidProjectMinInvestment",
      "inputs": []
    },
    {
      "type": "error",
      "name": "InvalidProjectSoftCap",
      "inputs": []
    },
    {
      "type": "error",
      "name": "InvalidProjectTimeframe",
      "inputs": []
    },
    {
      "type": "error",
      "name": "MaxInvestmentExceeded",
      "inputs": []
    },
    {
      "type": "error",
      "name": "MinInvestmentNotReached",
      "inputs": []
    },
    {
      "type": "error",
      "name": "NotEnoughERC20Allowance",
      "inputs": []
    },
    {
      "type": "error",
      "name": "NotProjectOwner",
      "inputs": []
    },
    {
      "type": "error",
      "name": "OwnableInvalidOwner",
      "inputs": [
        {
          "name": "owner",
          "type": "address",
          "internalType": "address"
        }
      ]
    },
    {
      "type": "error",
      "name": "OwnableUnauthorizedAccount",
      "inputs": [
        {
          "name": "account",
          "type": "address",
          "internalType": "address"
        }
      ]
    },
    {
      "type": "error",
      "name": "ProjectIDOHasEnded",
      "inputs": []
    },
    {
      "type": "error",
      "name": "ProjectIDOHasNotStarted",
      "inputs": []
    },
    {
      "type": "error",
      "name": "ProjectStillActive",
      "inputs": []
    },
    {
      "type": "error",
      "name": "ReentrancyGuardReentrantCall",
      "inputs": []
    },
    {
      "type": "error",
      "name": "SoftCapNotReach",
      "inputs": []
    },
    {
      "type": "error",
      "name": "TokenForSaleMustBePositive",
      "inputs": []
    },
    {
      "type": "error",
      "name": "TokenPriceMustBePositive",
      "inputs": []
    },
    {
      "type": "error",
      "name": "UserNotWhitelisted",
      "inputs": []
    },
    {
      "type": "error",
      "name": "ZeroAddress",
      "inputs": []
    }
  ],
  "bytecode": {
    "object": "0x60a06040523480156200001157600080fd5b506040516200150c3803806200150c833981016040819052620000349162000259565b8b6001600160a01b0381166200006457604051631e4fbdf760e01b81526000600482015260240160405180910390fd5b6200006f81620001ec565b50600180558b6001600160a01b0381166200009d5760405163d92e233d60e01b815260040160405180910390fd5b851580620000ab5750848611155b15620000ca57604051636cbdb61f60e01b815260040160405180910390fd5b60008511620000ec57604051635046b82960e11b815260040160405180910390fd5b861580620000f957508587115b806200010457508787105b1562000123576040516301c9409d60e31b815260040160405180910390fd5b600088116200014557604051630c8b846560e41b815260040160405180910390fd5b428a1080620001535750888a115b1562000172576040516353de4ffb60e11b815260040160405180910390fd5b50600380546001600160a01b03199081166001600160a01b039e8f16179091556004805482169c8e169c909c17909b556005999099556006979097556007959095556000600855600b93909355600c91909155600955600a55600d805490941691851691909117909255600e919091551660805262000306565b600080546001600160a01b038381166001600160a01b0319831681178455604051919092169283917f8be0079c531659141344cd1fd0a4f28419497f9722a3daafe3b4186f6b6457e09190a35050565b80516001600160a01b03811681146200025457600080fd5b919050565b6000806000806000806000806000806000806101808d8f0312156200027d57600080fd5b620002888d6200023c565b9b506200029860208e016200023c565b9a5060408d0151995060608d0151985060808d0151975060a08d0151965060c08d0151955060e08d015194506101008d015193506101208d01519250620002e36101408e016200023c565b9150620002f46101608e016200023c565b90509295989b509295989b509295989b565b6080516111ea6200032260003960006103a101526111ea6000f3fe608060405234801561001057600080fd5b50600436106101da5760003560e01c80639dbf77c111610104578063ccb9dc8b116100a2578063e9a9c50c11610071578063e9a9c50c14610379578063f2fde38b14610381578063f4390f0214610394578063f728186d1461039c57600080fd5b8063ccb9dc8b14610336578063e07fa3c11461033e578063e6d6859514610346578063e89b1fec1461035757600080fd5b8063a9c51b70116100de578063a9c51b701461030b578063b3017fd014610313578063b3a4faa21461031b578063b5697a1c1461032e57600080fd5b80639dbf77c1146102d9578063a9518e88146102fb578063a96fd5d81461030357600080fd5b80635eb5e2f41161017c5780637e53614f1161014b5780637e53614f146102c05780638da5cb5b146102c857806395c09054146102d95780639953c210146102ee57600080fd5b80635eb5e2f4146102835780635f791a15146102a857806366c561f8146102b0578063715018a6146102b857600080fd5b80633af32abf116101b85780633af32abf1461022b5780634d900f63146102675780635a604c52146102715780635cb732be1461027957600080fd5b8063027932f9146101df5780630cec2a76146101fa5780630fd4a2a914610223575b600080fd5b6101e76103c3565b6040519081526020015b60405180910390f35b6101e7610208366004610f07565b6001600160a01b03166000908152600f602052604090205490565b6009546101e7565b610257610239366004610f07565b6001600160a01b031660009081526010602052604090205460ff1690565b60405190151581526020016101f1565b6007544211610257565b6101e7600481565b61028161040a565b005b600d546001600160a01b03165b6040516001600160a01b0390911681526020016101f1565b600b546101e7565b6007546101e7565b61028161059a565b6101e76105ae565b6000546001600160a01b0316610290565b6102e16105c4565b6040516101f19190610f37565b600a546008541015610257565b6102816106d5565b600c546101e7565b600a546101e7565b6008546101e7565b610281610329366004610ff9565b6107e8565b6101e7603281565b6101e7610966565b610281610978565b6003546001600160a01b0316610290565b610257610365366004610f07565b600d546001600160a01b0391821691161490565b610281610af1565b61028161038f366004610f07565b610ca4565b6006546101e7565b6102907f000000000000000000000000000000000000000000000000000000000000000081565b6000806103cf60085490565b905060006103df6004600a61110e565b6103ea60328461111a565b6103f49190611131565b905060006104028284611153565b949350505050565b60075442101561042d57604051632ea42c6f60e11b815260040160405180910390fd5b600a546008541015610451576040516250b2a360e81b815260040160405180910390fd5b33600081815260116020526040902054806104a85760405162461bcd60e51b8152602060048201526012602482015271139bc81d1bdad95b881d1bc81c99599d5b9960721b60448201526064015b60405180910390fd5b600d5460405163a9059cbb60e01b81526001600160a01b03848116600483015260248201849052600092169063a9059cbb906044016020604051808303816000875af11580156104fc573d6000803e3d6000fd5b505050506040513d601f19601f820116820180604052508101906105209190611166565b90508061054057604051633c9fd93960e21b815260040160405180910390fd5b6001600160a01b03831660008181526011602090815260408083209290925560025491518581529192917ff3a670cd3af7d64b488926880889d08a8585a138ff455227af6737339a1ec262910160405180910390a3505050565b6105a2610ce2565b6105ac6000610d0f565b565b6007546000906105bf904290611153565b905090565b61064a604051806101a001604052806000815260200160006001600160a01b0316815260200160006001600160a01b03168152602001600081526020016000815260200160008152602001600081526020016000815260200160008152602001600081526020016000815260200160006001600160a01b03168152602001600081525090565b50604080516101a08101825260025481526003546001600160a01b0390811660208301526004548116928201929092526005546060820152600654608082015260075460a082015260085460c082015260095460e0820152600a54610100820152600b54610120820152600c54610140820152600d54909116610160820152600e5461018082015290565b6006544210156106f857604051632fb33b7b60e21b815260040160405180910390fd5b60075442111561071b5760405163ef9998dd60e01b815260040160405180910390fd5b610723610d5f565b3360008181526010602052604090205460ff16156107545760405163b73e95e160e01b815260040160405180910390fd5b6009546008541061077857604051631c4af3c960e11b815260040160405180910390fd5b60025460405133907f6ea640312e182de387819fbeb13be00db3171a445412852248559054871c419990600090a36001600160a01b0381166000908152601060205260408120805460ff191660011790556107d1610966565b90506107dd3382610d89565b50506105ac60018055565b60065442101561080b57604051632fb33b7b60e21b815260040160405180910390fd5b60075442111561082e5760405163ef9998dd60e01b815260040160405180910390fd5b3360008181526010602052604090205460ff1661085e57604051632ba75b2560e01b815260040160405180910390fd5b610866610d5f565b3360006108716105c4565b90506000610894836001600160a01b03166000908152600f602052604090205490565b905060006108a28683611188565b90508261012001518110156108ca5760405163753f384d60e11b815260040160405180910390fd5b8261014001518111156108f057604051631ba05a5760e31b815260040160405180910390fd5b82516040518781526001600160a01b038616907f9e9d071824fd57d062ca63fd8b786d8da48a6807eebbcb2d83f9e8d21398e28c9060200160405180910390a380600260060160008282546109459190611188565b9091555061095590508487610d89565b5050505061096260018055565b5050565b600b546000906105bf90600290611131565b6003546001600160a01b0316336001600160a01b0316146109ac57604051637c2411e960e01b815260040160405180910390fd5b6109b4610d5f565b6007544210156109d757604051632ea42c6f60e11b815260040160405180910390fd5b600a5460085410156109fb576040516250b2a360e81b815260040160405180910390fd5b6000610a056103c3565b600d549091506000906001600160a01b031663a9059cbb336040516001600160e01b031960e084901b1681526001600160a01b039091166004820152602481018590526044016020604051808303816000875af1158015610a6a573d6000803e3d6000fd5b505050506040513d601f19601f82011682018060405250810190610a8e9190611166565b905080610aae57604051633c9fd93960e21b815260040160405180910390fd5b60025460405183815233907f2a21ff03a0e8112a6f7dd57a7a1e07b922c2cb6b55fb1f3ef2e7a0084eaa6dc29060200160405180910390a350506105ac60018055565b600754421015610b1457604051632ea42c6f60e11b815260040160405180910390fd5b600a546008541015610b38576040516250b2a360e81b815260040160405180910390fd5b3360008181526011602052604090205480610b8b5760405162461bcd60e51b81526020600482015260136024820152724e6f20746f6b656e7320746f2072656465656d60681b604482015260640161049f565b600e54600090610b9b908361111a565b90506000610ba98284611188565b6004805460405163a9059cbb60e01b81526001600160a01b03888116938201939093526024810184905292935060009291169063a9059cbb906044016020604051808303816000875af1158015610c04573d6000803e3d6000fd5b505050506040513d601f19601f82011682018060405250810190610c289190611166565b905080610c4857604051633c9fd93960e21b815260040160405180910390fd5b6001600160a01b03851660008181526011602090815260408083209290925560025491518581529192917ff3a670cd3af7d64b488926880889d08a8585a138ff455227af6737339a1ec262910160405180910390a35050505050565b610cac610ce2565b6001600160a01b038116610cd657604051631e4fbdf760e01b81526000600482015260240161049f565b610cdf81610d0f565b50565b6000546001600160a01b031633146105ac5760405163118cdaa760e01b815233600482015260240161049f565b600080546001600160a01b038381166001600160a01b0319831681178455604051919092169283917f8be0079c531659141344cd1fd0a4f28419497f9722a3daafe3b4186f6b6457e09190a35050565b600260015403610d8257604051633ee5aeb560e01b815260040160405180910390fd5b6002600155565b6000610d9d600d546001600160a01b031690565b604051636eb1769f60e11b81526001600160a01b03858116600483015230602483015291925060009183169063dd62ed3e90604401602060405180830381865afa158015610def573d6000803e3d6000fd5b505050506040513d601f19601f82011682018060405250810190610e13919061119b565b905082811015610e365760405163bd0a4d7160e01b815260040160405180910390fd5b6001600160a01b0384166000908152600f602052604081208054859290610e5e908490611188565b90915550506040516323b872dd60e01b81526001600160a01b03858116600483015230602483015260448201859052600091908416906323b872dd906064016020604051808303816000875af1158015610ebc573d6000803e3d6000fd5b505050506040513d601f19601f82011682018060405250810190610ee09190611166565b905080610f0057604051633c9fd93960e21b815260040160405180910390fd5b5050505050565b600060208284031215610f1957600080fd5b81356001600160a01b0381168114610f3057600080fd5b9392505050565b815181526020808301516101a0830191610f5b908401826001600160a01b03169052565b506040830151610f7660408401826001600160a01b03169052565b50606083015160608301526080830151608083015260a083015160a083015260c083015160c083015260e083015160e083015261010080840151818401525061012080840151818401525061014080840151818401525061016080840151610fe8828501826001600160a01b03169052565b505061018092830151919092015290565b60006020828403121561100b57600080fd5b5035919050565b634e487b7160e01b600052601160045260246000fd5b600181815b8085111561106357816000190482111561104957611049611012565b8085161561105657918102915b93841c939080029061102d565b509250929050565b60008261107a57506001611108565b8161108757506000611108565b816001811461109d57600281146110a7576110c3565b6001915050611108565b60ff8411156110b8576110b8611012565b50506001821b611108565b5060208310610133831016604e8410600b84101617156110e6575081810a611108565b6110f08383611028565b806000190482111561110457611104611012565b0290505b92915050565b6000610f30838361106b565b808202811582820484141761110857611108611012565b60008261114e57634e487b7160e01b600052601260045260246000fd5b500490565b8181038181111561110857611108611012565b60006020828403121561117857600080fd5b81518015158114610f3057600080fd5b8082018082111561110857611108611012565b6000602082840312156111ad57600080fd5b505191905056fea2646970667358221220f8043966a08c13c0ea0c7676b6a4fbf4dfe16d1872f07d5791b5048e26bc680464736f6c63430008180033",
    "linkReferences": {}
  },
  "methodIdentifiers": {
    "IDO_FEE_RATE()": "b5697a1c",
    "RATE_DECIMALS()": "5a604c52",
    "getAcceptedVAsset()": "5eb5e2f4",
    "getProjectDetail()": "9dbf77c1",
    "getProjectEndTime()": "66c561f8",
    "getProjectFullDetails()": "95c09054",
    "getProjectHardCapAmount()": "0fd4a2a9",
    "getProjectMaxInvest()": "a96fd5d8",
    "getProjectMinInvest()": "5f791a15",
    "getProjectOwner()": "e6d68595",
    "getProjectRaisedAmount()": "b3017fd0",
    "getProjectSoftCapAmount()": "a9c51b70",
    "getProjectSoftCapReached()": "9953c210",
    "getProjectStartTime()": "f4390f02",
    "getReserveInvestment()": "ccb9dc8b",
    "getTimeLeftUntilProjecctEnd()": "7e53614f",
    "getUserDepositAmount(address)": "0cec2a76",
    "getWithdrawAmount()": "027932f9",
    "investProject(uint256)": "b3a4faa2",
    "isProjectActive()": "4d900f63",
    "isVAssetAcceptedByProject(address)": "e89b1fec",
    "isWhitelisted(address)": "3af32abf",
    "joinWhitelist()": "a9518e88",
    "owner()": "8da5cb5b",
    "redeemTokens()": "e9a9c50c",
    "refundToken()": "5cb732be",
    "renounceOwnership()": "715018a6",
    "slpxAddress()": "f728186d",
    "transferOwnership(address)": "f2fde38b",
    "withdrawFund()": "e07fa3c1"
  },
  "id": 0
}