{
  "_format": "hh-sol-artifact-1",
  "contractName": "IDO",
  "sourceName": "contracts/IDO.sol",
  "abi": [
    {
      "inputs": [],
      "stateMutability": "nonpayable",
      "type": "constructor"
    },
    {
      "inputs": [],
      "name": "invalidProjectID",
      "type": "error"
    },
    {
      "inputs": [],
      "name": "tokenForSaleMustBePositive",
      "type": "error"
    },
    {
      "inputs": [],
      "name": "tokenPriceMustBePositive",
      "type": "error"
    },
    {
      "anonymous": false,
      "inputs": [
        {
          "indexed": true,
          "internalType": "address",
          "name": "user",
          "type": "address"
        },
        {
          "indexed": true,
          "internalType": "uint256",
          "name": "projectId",
          "type": "uint256"
        },
        {
          "indexed": true,
          "internalType": "uint256",
          "name": "amount",
          "type": "uint256"
        }
      ],
      "name": "Invested",
      "type": "event"
    },
    {
      "anonymous": false,
      "inputs": [
        {
          "indexed": true,
          "internalType": "address",
          "name": "projectOwner",
          "type": "address"
        },
        {
          "indexed": true,
          "internalType": "address",
          "name": "tokenAddress",
          "type": "address"
        },
        {
          "indexed": false,
          "internalType": "uint256",
          "name": "tokenForSale",
          "type": "uint256"
        },
        {
          "indexed": false,
          "internalType": "uint256",
          "name": "pricePerToken",
          "type": "uint256"
        },
        {
          "indexed": false,
          "internalType": "uint256",
          "name": "startTime",
          "type": "uint256"
        },
        {
          "indexed": false,
          "internalType": "uint256",
          "name": "endTime",
          "type": "uint256"
        }
      ],
      "name": "ProjectCreated",
      "type": "event"
    },
    {
      "anonymous": false,
      "inputs": [
        {
          "indexed": true,
          "internalType": "address",
          "name": "user",
          "type": "address"
        },
        {
          "indexed": true,
          "internalType": "uint256",
          "name": "projectId",
          "type": "uint256"
        }
      ],
      "name": "ProjectWithdrawn",
      "type": "event"
    },
    {
      "anonymous": false,
      "inputs": [
        {
          "indexed": true,
          "internalType": "address",
          "name": "user",
          "type": "address"
        },
        {
          "indexed": true,
          "internalType": "uint256",
          "name": "projectId",
          "type": "uint256"
        }
      ],
      "name": "Whitelisted",
      "type": "event"
    },
    {
      "inputs": [
        {
          "internalType": "address",
          "name": "_tokenAddress",
          "type": "address"
        },
        {
          "internalType": "uint256",
          "name": "_tokenForSale",
          "type": "uint256"
        },
        {
          "internalType": "uint256",
          "name": "_pricePerToken",
          "type": "uint256"
        },
        {
          "internalType": "uint256",
          "name": "_startTime",
          "type": "uint256"
        },
        {
          "internalType": "uint256",
          "name": "_endTime",
          "type": "uint256"
        },
        {
          "internalType": "uint256",
          "name": "_minInvest",
          "type": "uint256"
        },
        {
          "internalType": "uint256",
          "name": "_maxInvest",
          "type": "uint256"
        }
      ],
      "name": "addProject",
      "outputs": [],
      "stateMutability": "nonpayable",
      "type": "function"
    },
    {
      "inputs": [
        {
          "internalType": "address",
          "name": "",
          "type": "address"
        },
        {
          "internalType": "uint256",
          "name": "",
          "type": "uint256"
        }
      ],
      "name": "balances",
      "outputs": [
        {
          "internalType": "uint256",
          "name": "",
          "type": "uint256"
        }
      ],
      "stateMutability": "view",
      "type": "function"
    },
    {
      "inputs": [],
      "name": "getCurrentProjectId",
      "outputs": [
        {
          "internalType": "uint256",
          "name": "",
          "type": "uint256"
        }
      ],
      "stateMutability": "view",
      "type": "function"
    },
    {
      "inputs": [],
      "name": "getDeployer",
      "outputs": [
        {
          "internalType": "address",
          "name": "",
          "type": "address"
        }
      ],
      "stateMutability": "view",
      "type": "function"
    },
    {
      "inputs": [
        {
          "internalType": "address",
          "name": "_userAdr",
          "type": "address"
        },
        {
          "internalType": "uint256",
          "name": "_projectId",
          "type": "uint256"
        }
      ],
      "name": "getInvestedAmount",
      "outputs": [
        {
          "internalType": "uint256",
          "name": "",
          "type": "uint256"
        }
      ],
      "stateMutability": "view",
      "type": "function"
    },
    {
      "inputs": [
        {
          "internalType": "uint256",
          "name": "_projectId",
          "type": "uint256"
        }
      ],
      "name": "getProjectFullDetails",
      "outputs": [
        {
          "components": [
            {
              "internalType": "uint256",
              "name": "projectId",
              "type": "uint256"
            },
            {
              "internalType": "address",
              "name": "projectOwner",
              "type": "address"
            },
            {
              "internalType": "address",
              "name": "tokenAddress",
              "type": "address"
            },
            {
              "internalType": "uint256",
              "name": "tokenForSale",
              "type": "uint256"
            },
            {
              "internalType": "uint256",
              "name": "pricePerToken",
              "type": "uint256"
            },
            {
              "internalType": "uint256",
              "name": "startTime",
              "type": "uint256"
            },
            {
              "internalType": "uint256",
              "name": "endTime",
              "type": "uint256"
            },
            {
              "internalType": "uint256",
              "name": "raisedAmount",
              "type": "uint256"
            },
            {
              "internalType": "uint256",
              "name": "minInvest",
              "type": "uint256"
            },
            {
              "internalType": "uint256",
              "name": "maxInvest",
              "type": "uint256"
            }
          ],
          "internalType": "struct IDO.Project",
          "name": "",
          "type": "tuple"
        }
      ],
      "stateMutability": "view",
      "type": "function"
    },
    {
      "inputs": [
        {
          "internalType": "uint256",
          "name": "_projectId",
          "type": "uint256"
        }
      ],
      "name": "getProjecttokenForSale",
      "outputs": [
        {
          "internalType": "uint256",
          "name": "",
          "type": "uint256"
        }
      ],
      "stateMutability": "view",
      "type": "function"
    },
    {
      "inputs": [
        {
          "internalType": "uint256",
          "name": "_projectId",
          "type": "uint256"
        }
      ],
      "name": "getReserveInvestment",
      "outputs": [
        {
          "internalType": "uint256",
          "name": "",
          "type": "uint256"
        }
      ],
      "stateMutability": "view",
      "type": "function"
    },
    {
      "inputs": [
        {
          "internalType": "uint256",
          "name": "_projectId",
          "type": "uint256"
        }
      ],
      "name": "getTimeLeftUntilProjecctEnd",
      "outputs": [
        {
          "internalType": "uint256",
          "name": "",
          "type": "uint256"
        }
      ],
      "stateMutability": "view",
      "type": "function"
    },
    {
      "inputs": [
        {
          "internalType": "uint256",
          "name": "_projectId",
          "type": "uint256"
        }
      ],
      "name": "investProject",
      "outputs": [],
      "stateMutability": "payable",
      "type": "function"
    },
    {
      "inputs": [
        {
          "internalType": "uint256",
          "name": "_projectId",
          "type": "uint256"
        }
      ],
      "name": "isProjectActive",
      "outputs": [
        {
          "internalType": "bool",
          "name": "",
          "type": "bool"
        }
      ],
      "stateMutability": "view",
      "type": "function"
    },
    {
      "inputs": [
        {
          "internalType": "uint256",
          "name": "_projectId",
          "type": "uint256"
        },
        {
          "internalType": "address",
          "name": "_address",
          "type": "address"
        }
      ],
      "name": "isWhitelisted",
      "outputs": [
        {
          "internalType": "bool",
          "name": "",
          "type": "bool"
        }
      ],
      "stateMutability": "view",
      "type": "function"
    },
    {
      "inputs": [
        {
          "internalType": "uint256",
          "name": "_projectId",
          "type": "uint256"
        }
      ],
      "name": "joinWhitelist",
      "outputs": [],
      "stateMutability": "payable",
      "type": "function"
    },
    {
      "inputs": [],
      "name": "owner",
      "outputs": [
        {
          "internalType": "address",
          "name": "",
          "type": "address"
        }
      ],
      "stateMutability": "view",
      "type": "function"
    },
    {
      "inputs": [
        {
          "internalType": "uint256",
          "name": "",
          "type": "uint256"
        }
      ],
      "name": "projectOwners",
      "outputs": [
        {
          "internalType": "address",
          "name": "",
          "type": "address"
        }
      ],
      "stateMutability": "view",
      "type": "function"
    },
    {
      "inputs": [
        {
          "internalType": "uint256",
          "name": "",
          "type": "uint256"
        }
      ],
      "name": "projects",
      "outputs": [
        {
          "internalType": "uint256",
          "name": "projectId",
          "type": "uint256"
        },
        {
          "internalType": "address",
          "name": "projectOwner",
          "type": "address"
        },
        {
          "internalType": "address",
          "name": "tokenAddress",
          "type": "address"
        },
        {
          "internalType": "uint256",
          "name": "tokenForSale",
          "type": "uint256"
        },
        {
          "internalType": "uint256",
          "name": "pricePerToken",
          "type": "uint256"
        },
        {
          "internalType": "uint256",
          "name": "startTime",
          "type": "uint256"
        },
        {
          "internalType": "uint256",
          "name": "endTime",
          "type": "uint256"
        },
        {
          "internalType": "uint256",
          "name": "raisedAmount",
          "type": "uint256"
        },
        {
          "internalType": "uint256",
          "name": "minInvest",
          "type": "uint256"
        },
        {
          "internalType": "uint256",
          "name": "maxInvest",
          "type": "uint256"
        }
      ],
      "stateMutability": "view",
      "type": "function"
    },
    {
      "inputs": [
        {
          "internalType": "uint256",
          "name": "_projectId",
          "type": "uint256"
        }
      ],
      "name": "withdraw",
      "outputs": [],
      "stateMutability": "nonpayable",
      "type": "function"
    }
  ],
  "bytecode": "0x6080604052600160055534801561001557600080fd5b50336000806101000a81548173ffffffffffffffffffffffffffffffffffffffff021916908373ffffffffffffffffffffffffffffffffffffffff1602179055506124f8806100656000396000f3fe6080604052600436106100fe5760003560e01c80637d22c35c11610095578063b3a4faa211610064578063b3a4faa21461039c578063c868ba9a146103b8578063cbf1304d146103e3578063ee685df514610420578063fe37c66b1461045d576100fe565b80637d22c35c146102ba578063830b30b7146102f75780638da5cb5b14610334578063a61e783d1461035f576100fe565b80632e1a7d4d116100d15780632e1a7d4d1461020057806353339ba01461022957806372630531146102665780637a21385514610291576100fe565b80630485535614610103578063107046bd146101405780631de53d781461018657806326844900146101c3575b600080fd5b34801561010f57600080fd5b5061012a60048036038101906101259190611ad0565b610479565b6040516101379190611b0c565b60405180910390f35b34801561014c57600080fd5b5061016760048036038101906101629190611ad0565b610594565b60405161017d9a99989796959493929190611b68565b60405180910390f35b34801561019257600080fd5b506101ad60048036038101906101a89190611ad0565b610628565b6040516101ba9190611cee565b60405180910390f35b3480156101cf57600080fd5b506101ea60048036038101906101e59190611d36565b610841565b6040516101f79190611b0c565b60405180910390f35b34801561020c57600080fd5b5061022760048036038101906102229190611ad0565b6109d4565b005b34801561023557600080fd5b50610250600480360381019061024b9190611ad0565b610b95565b60405161025d9190611d76565b60405180910390f35b34801561027257600080fd5b5061027b610bc8565b6040516102889190611d76565b60405180910390f35b34801561029d57600080fd5b506102b860048036038101906102b39190611d91565b610bf1565b005b3480156102c657600080fd5b506102e160048036038101906102dc9190611e33565b610e99565b6040516102ee9190611e8e565b60405180910390f35b34801561030357600080fd5b5061031e60048036038101906103199190611ad0565b610ff0565b60405161032b9190611b0c565b60405180910390f35b34801561034057600080fd5b5061034961110a565b6040516103569190611d76565b60405180910390f35b34801561036b57600080fd5b5061038660048036038101906103819190611ad0565b61112e565b6040516103939190611b0c565b60405180910390f35b6103b660048036038101906103b19190611ad0565b61123d565b005b3480156103c457600080fd5b506103cd611503565b6040516103da9190611b0c565b60405180910390f35b3480156103ef57600080fd5b5061040a60048036038101906104059190611d36565b61150d565b6040516104179190611b0c565b60405180910390f35b34801561042c57600080fd5b5061044760048036038101906104429190611ad0565b611532565b6040516104549190611e8e565b60405180910390f35b61047760048036038101906104729190611ad0565b611643565b005b60008160055481118061048d575060008111155b156104c4576040517f76b2e72f00000000000000000000000000000000000000000000000000000000815260040160405180910390fd5b600073ffffffffffffffffffffffffffffffffffffffff166003600083815260200190815260200160002060020160009054906101000a900473ffffffffffffffffffffffffffffffffffffffff1673ffffffffffffffffffffffffffffffffffffffff1603610569576040517f08c379a000000000000000000000000000000000000000000000000000000000815260040161056090611f06565b60405180910390fd5b6002600360008581526020019081526020016000206008015461058c9190611f84565b915050919050565b60036020528060005260406000206000915090508060000154908060010160009054906101000a900473ffffffffffffffffffffffffffffffffffffffff16908060020160009054906101000a900473ffffffffffffffffffffffffffffffffffffffff1690806003015490806004015490806005015490806006015490806007015490806008015490806009015490508a565b610630611a16565b81600554811180610642575060008111155b15610679576040517f76b2e72f00000000000000000000000000000000000000000000000000000000815260040160405180910390fd5b600073ffffffffffffffffffffffffffffffffffffffff166003600083815260200190815260200160002060020160009054906101000a900473ffffffffffffffffffffffffffffffffffffffff1673ffffffffffffffffffffffffffffffffffffffff160361071e576040517f08c379a000000000000000000000000000000000000000000000000000000000815260040161071590611f06565b60405180910390fd5b6003600084815260200190815260200160002060405180610140016040529081600082015481526020016001820160009054906101000a900473ffffffffffffffffffffffffffffffffffffffff1673ffffffffffffffffffffffffffffffffffffffff1673ffffffffffffffffffffffffffffffffffffffff1681526020016002820160009054906101000a900473ffffffffffffffffffffffffffffffffffffffff1673ffffffffffffffffffffffffffffffffffffffff1673ffffffffffffffffffffffffffffffffffffffff168152602001600382015481526020016004820154815260200160058201548152602001600682015481526020016007820154815260200160088201548152602001600982015481525050915050919050565b600081600554811180610855575060008111155b1561088c576040517f76b2e72f00000000000000000000000000000000000000000000000000000000815260040160405180910390fd5b600073ffffffffffffffffffffffffffffffffffffffff166003600083815260200190815260200160002060020160009054906101000a900473ffffffffffffffffffffffffffffffffffffffff1673ffffffffffffffffffffffffffffffffffffffff1603610931576040517f08c379a000000000000000000000000000000000000000000000000000000000815260040161092890611f06565b60405180910390fd5b6000600160008673ffffffffffffffffffffffffffffffffffffffff1673ffffffffffffffffffffffffffffffffffffffff1681526020019081526020016000206000858152602001908152602001600020549050600081116109c9576040517f08c379a00000000000000000000000000000000000000000000000000000000081526004016109c090612027565b60405180910390fd5b809250505092915050565b806004600082815260200190815260200160002060009054906101000a900473ffffffffffffffffffffffffffffffffffffffff1673ffffffffffffffffffffffffffffffffffffffff163373ffffffffffffffffffffffffffffffffffffffff1614610a76576040517f08c379a0000000000000000000000000000000000000000000000000000000008152600401610a6d90612093565b60405180910390fd5b60036000838152602001908152602001600020600601544211610ace576040517f08c379a0000000000000000000000000000000000000000000000000000000008152600401610ac5906120ff565b60405180910390fd5b6000600360008481526020019081526020016000206007015490503373ffffffffffffffffffffffffffffffffffffffff166108fc829081150290604051600060405180830381858888f19350505050158015610b2f573d6000803e3d6000fd5b5060006003600085815260200190815260200160002060070181905550823373ffffffffffffffffffffffffffffffffffffffff167f7d70d9fa1efd5f38520dde93ed3f15be7c22cdf561341e611114faf9a713425060405160405180910390a3505050565b60046020528060005260406000206000915054906101000a900473ffffffffffffffffffffffffffffffffffffffff1681565b60008060009054906101000a900473ffffffffffffffffffffffffffffffffffffffff16905090565b600073ffffffffffffffffffffffffffffffffffffffff168773ffffffffffffffffffffffffffffffffffffffff1603610c60576040517f08c379a0000000000000000000000000000000000000000000000000000000008152600401610c579061216b565b60405180910390fd5b60008611610c9a576040517f6ed4757a00000000000000000000000000000000000000000000000000000000815260040160405180910390fd5b600060405180610140016040528060055481526020013373ffffffffffffffffffffffffffffffffffffffff1681526020018973ffffffffffffffffffffffffffffffffffffffff16815260200188815260200187815260200186815260200185815260200160008152602001848152602001838152509050806003600060055481526020019081526020016000206000820151816000015560208201518160010160006101000a81548173ffffffffffffffffffffffffffffffffffffffff021916908373ffffffffffffffffffffffffffffffffffffffff16021790555060408201518160020160006101000a81548173ffffffffffffffffffffffffffffffffffffffff021916908373ffffffffffffffffffffffffffffffffffffffff160217905550606082015181600301556080820151816004015560a0820151816005015560c0820151816006015560e08201518160070155610100820151816008015561012082015181600901559050508773ffffffffffffffffffffffffffffffffffffffff163373ffffffffffffffffffffffffffffffffffffffff167f587891de1bb95260965448bc2dfce5a24c37e228b1fab4ab8003d785ba4263e889898989604051610e6f949392919061218b565b60405180910390a360056000815480929190610e8a906121d0565b91905055505050505050505050565b600082600554811180610ead575060008111155b15610ee4576040517f76b2e72f00000000000000000000000000000000000000000000000000000000815260040160405180910390fd5b600073ffffffffffffffffffffffffffffffffffffffff166003600083815260200190815260200160002060020160009054906101000a900473ffffffffffffffffffffffffffffffffffffffff1673ffffffffffffffffffffffffffffffffffffffff1603610f89576040517f08c379a0000000000000000000000000000000000000000000000000000000008152600401610f8090611f06565b60405180910390fd5b6002600085815260200190815260200160002060008473ffffffffffffffffffffffffffffffffffffffff1673ffffffffffffffffffffffffffffffffffffffff16815260200190815260200160002060009054906101000a900460ff1691505092915050565b600081600554811180611004575060008111155b1561103b576040517f76b2e72f00000000000000000000000000000000000000000000000000000000815260040160405180910390fd5b600073ffffffffffffffffffffffffffffffffffffffff166003600083815260200190815260200160002060020160009054906101000a900473ffffffffffffffffffffffffffffffffffffffff1673ffffffffffffffffffffffffffffffffffffffff16036110e0576040517f08c379a00000000000000000000000000000000000000000000000000000000081526004016110d790611f06565b60405180910390fd5b4260036000858152602001908152602001600020600601546111029190612218565b915050919050565b60008054906101000a900473ffffffffffffffffffffffffffffffffffffffff1681565b600081600554811180611142575060008111155b15611179576040517f76b2e72f00000000000000000000000000000000000000000000000000000000815260040160405180910390fd5b600073ffffffffffffffffffffffffffffffffffffffff166003600083815260200190815260200160002060020160009054906101000a900473ffffffffffffffffffffffffffffffffffffffff1673ffffffffffffffffffffffffffffffffffffffff160361121e576040517f08c379a000000000000000000000000000000000000000000000000000000000815260040161121590611f06565b60405180910390fd5b6003600084815260200190815260200160002060030154915050919050565b8060055481118061124f575060008111155b15611286576040517f76b2e72f00000000000000000000000000000000000000000000000000000000815260040160405180910390fd5b600073ffffffffffffffffffffffffffffffffffffffff166003600083815260200190815260200160002060020160009054906101000a900473ffffffffffffffffffffffffffffffffffffffff1673ffffffffffffffffffffffffffffffffffffffff160361132b576040517f08c379a000000000000000000000000000000000000000000000000000000000815260040161132290611f06565b60405180910390fd5b8160036000828152602001908152602001600020600601544210611384576040517f08c379a000000000000000000000000000000000000000000000000000000000815260040161137b90612298565b60405180910390fd5b33836002600082815260200190815260200160002060008373ffffffffffffffffffffffffffffffffffffffff1673ffffffffffffffffffffffffffffffffffffffff16815260200190815260200160002060009054906101000a900460ff16611423576040517f08c379a000000000000000000000000000000000000000000000000000000000815260040161141a90612304565b60405180910390fd5b346003600087815260200190815260200160002060070160008282546114499190612324565b9250508190555034600160003373ffffffffffffffffffffffffffffffffffffffff1673ffffffffffffffffffffffffffffffffffffffff168152602001908152602001600020600087815260200190815260200160002060008282546114b09190612324565b9250508190555034853373ffffffffffffffffffffffffffffffffffffffff167f9e9d071824fd57d062ca63fd8b786d8da48a6807eebbcb2d83f9e8d21398e28c60405160405180910390a45050505050565b6000600554905090565b6001602052816000526040600020602052806000526040600020600091509150505481565b600081600554811180611546575060008111155b1561157d576040517f76b2e72f00000000000000000000000000000000000000000000000000000000815260040160405180910390fd5b600073ffffffffffffffffffffffffffffffffffffffff166003600083815260200190815260200160002060020160009054906101000a900473ffffffffffffffffffffffffffffffffffffffff1673ffffffffffffffffffffffffffffffffffffffff1603611622576040517f08c379a000000000000000000000000000000000000000000000000000000000815260040161161990611f06565b60405180910390fd5b60036000848152602001908152602001600020600601544211915050919050565b80600554811180611655575060008111155b1561168c576040517f76b2e72f00000000000000000000000000000000000000000000000000000000815260040160405180910390fd5b600073ffffffffffffffffffffffffffffffffffffffff166003600083815260200190815260200160002060020160009054906101000a900473ffffffffffffffffffffffffffffffffffffffff1673ffffffffffffffffffffffffffffffffffffffff1603611731576040517f08c379a000000000000000000000000000000000000000000000000000000000815260040161172890611f06565b60405180910390fd5b816003600082815260200190815260200160002060060154421061178a576040517f08c379a000000000000000000000000000000000000000000000000000000000815260040161178190612298565b60405180910390fd5b33836002600082815260200190815260200160002060008373ffffffffffffffffffffffffffffffffffffffff1673ffffffffffffffffffffffffffffffffffffffff16815260200190815260200160002060009054906101000a900460ff161561182a576040517f08c379a0000000000000000000000000000000000000000000000000000000008152600401611821906123a4565b60405180910390fd5b61183385610479565b341015611875576040517f08c379a000000000000000000000000000000000000000000000000000000000815260040161186c90612410565b60405180910390fd5b60036000868152602001908152602001600020600901543411156118ce576040517f08c379a00000000000000000000000000000000000000000000000000000000081526004016118c5906124a2565b60405180910390fd5b346003600087815260200190815260200160002060070160008282546118f49190612324565b9250508190555034600160003373ffffffffffffffffffffffffffffffffffffffff1673ffffffffffffffffffffffffffffffffffffffff1681526020019081526020016000206000878152602001908152602001600020600082825461195b9190612324565b9250508190555060016002600087815260200190815260200160002060003373ffffffffffffffffffffffffffffffffffffffff1673ffffffffffffffffffffffffffffffffffffffff16815260200190815260200160002060006101000a81548160ff021916908315150217905550843373ffffffffffffffffffffffffffffffffffffffff167f6ea640312e182de387819fbeb13be00db3171a445412852248559054871c419960405160405180910390a35050505050565b60405180610140016040528060008152602001600073ffffffffffffffffffffffffffffffffffffffff168152602001600073ffffffffffffffffffffffffffffffffffffffff168152602001600081526020016000815260200160008152602001600081526020016000815260200160008152602001600081525090565b600080fd5b6000819050919050565b611aad81611a9a565b8114611ab857600080fd5b50565b600081359050611aca81611aa4565b92915050565b600060208284031215611ae657611ae5611a95565b5b6000611af484828501611abb565b91505092915050565b611b0681611a9a565b82525050565b6000602082019050611b216000830184611afd565b92915050565b600073ffffffffffffffffffffffffffffffffffffffff82169050919050565b6000611b5282611b27565b9050919050565b611b6281611b47565b82525050565b600061014082019050611b7e600083018d611afd565b611b8b602083018c611b59565b611b98604083018b611b59565b611ba5606083018a611afd565b611bb26080830189611afd565b611bbf60a0830188611afd565b611bcc60c0830187611afd565b611bd960e0830186611afd565b611be7610100830185611afd565b611bf5610120830184611afd565b9b9a5050505050505050505050565b611c0d81611a9a565b82525050565b611c1c81611b47565b82525050565b61014082016000820151611c396000850182611c04565b506020820151611c4c6020850182611c13565b506040820151611c5f6040850182611c13565b506060820151611c726060850182611c04565b506080820151611c856080850182611c04565b5060a0820151611c9860a0850182611c04565b5060c0820151611cab60c0850182611c04565b5060e0820151611cbe60e0850182611c04565b50610100820151611cd3610100850182611c04565b50610120820151611ce8610120850182611c04565b50505050565b600061014082019050611d046000830184611c22565b92915050565b611d1381611b47565b8114611d1e57600080fd5b50565b600081359050611d3081611d0a565b92915050565b60008060408385031215611d4d57611d4c611a95565b5b6000611d5b85828601611d21565b9250506020611d6c85828601611abb565b9150509250929050565b6000602082019050611d8b6000830184611b59565b92915050565b600080600080600080600060e0888a031215611db057611daf611a95565b5b6000611dbe8a828b01611d21565b9750506020611dcf8a828b01611abb565b9650506040611de08a828b01611abb565b9550506060611df18a828b01611abb565b9450506080611e028a828b01611abb565b93505060a0611e138a828b01611abb565b92505060c0611e248a828b01611abb565b91505092959891949750929550565b60008060408385031215611e4a57611e49611a95565b5b6000611e5885828601611abb565b9250506020611e6985828601611d21565b9150509250929050565b60008115159050919050565b611e8881611e73565b82525050565b6000602082019050611ea36000830184611e7f565b92915050565b600082825260208201905092915050565b7f496e76616c696420746f6b656e20616464726573730000000000000000000000600082015250565b6000611ef0601583611ea9565b9150611efb82611eba565b602082019050919050565b60006020820190508181036000830152611f1f81611ee3565b9050919050565b7f4e487b7100000000000000000000000000000000000000000000000000000000600052601260045260246000fd5b7f4e487b7100000000000000000000000000000000000000000000000000000000600052601160045260246000fd5b6000611f8f82611a9a565b9150611f9a83611a9a565b925082611faa57611fa9611f26565b5b828204905092915050565b7f557365722020686173206e6f7420696e76657374656420696e2074686973207060008201527f726f6a6563740000000000000000000000000000000000000000000000000000602082015250565b6000612011602683611ea9565b915061201c82611fb5565b604082019050919050565b6000602082019050818103600083015261204081612004565b9050919050565b7f43616c6c6572206973206e6f74207468652070726f6a656374206f776e657200600082015250565b600061207d601f83611ea9565b915061208882612047565b602082019050919050565b600060208201905081810360008301526120ac81612070565b9050919050565b7f50726f6a656374206973207374696c6c20616374697665000000000000000000600082015250565b60006120e9601783611ea9565b91506120f4826120b3565b602082019050919050565b60006020820190508181036000830152612118816120dc565b9050919050565b7f546f6b656e2061646472657373206e65656420746f2065786973740000000000600082015250565b6000612155601b83611ea9565b91506121608261211f565b602082019050919050565b6000602082019050818103600083015261218481612148565b9050919050565b60006080820190506121a06000830187611afd565b6121ad6020830186611afd565b6121ba6040830185611afd565b6121c76060830184611afd565b95945050505050565b60006121db82611a9a565b91507fffffffffffffffffffffffffffffffffffffffffffffffffffffffffffffffff820361220d5761220c611f55565b5b600182019050919050565b600061222382611a9a565b915061222e83611a9a565b925082820390508181111561224657612245611f55565b5b92915050565b7f50726f6a6563742049444f2068617320656e6465640000000000000000000000600082015250565b6000612282601583611ea9565b915061228d8261224c565b602082019050919050565b600060208201905081810360008301526122b181612275565b9050919050565b7f496e766573746f72206973206e6f742077686974656c69737465640000000000600082015250565b60006122ee601b83611ea9565b91506122f9826122b8565b602082019050919050565b6000602082019050818103600083015261231d816122e1565b9050919050565b600061232f82611a9a565b915061233a83611a9a565b925082820190508082111561235257612351611f55565b5b92915050565b7f496e766573746f7220697320616c72656164792077686974656c697374656400600082015250565b600061238e601f83611ea9565b915061239982612358565b602082019050919050565b600060208201905081810360008301526123bd81612381565b9050919050565b7f4d696e696d756d207265736572766520616d6f756e74206e6f74207265616368600082015250565b60006123fa602083611ea9565b9150612405826123c4565b602082019050919050565b60006020820190508181036000830152612429816123ed565b9050919050565b7f5265736572766520616d6f756e74206d757374206c6f776572207468616e206d60008201527f617820696e766573746d656e7420636170000000000000000000000000000000602082015250565b600061248c603183611ea9565b915061249782612430565b604082019050919050565b600060208201905081810360008301526124bb8161247f565b905091905056fea26469706673582212208eedbe5f211bf3d83edae076bf02a62cd471d43d7c751eee6aa6124ef756e2a564736f6c63430008180033",
  "linkReferences": {},
  "deployedLinkReferences": {}
}